{
  "contractName": "RlayToken",
  "abi": [
    {
      "constant": true,
      "inputs": [],
      "name": "name",
      "outputs": [
        {
          "name": "",
          "type": "string"
        }
      ],
      "payable": false,
      "stateMutability": "view",
      "type": "function"
    },
    {
      "constant": false,
      "inputs": [
        {
          "name": "_spender",
          "type": "address"
        },
        {
          "name": "_value",
          "type": "uint256"
        }
      ],
      "name": "approve",
      "outputs": [
        {
          "name": "success",
          "type": "bool"
        }
      ],
      "payable": false,
      "stateMutability": "nonpayable",
      "type": "function"
    },
    {
      "constant": true,
      "inputs": [
        {
          "name": "",
          "type": "uint256"
        }
      ],
      "name": "payout_roots",
      "outputs": [
        {
          "name": "",
          "type": "bytes32"
        }
      ],
      "payable": false,
      "stateMutability": "view",
      "type": "function"
    },
    {
      "constant": true,
      "inputs": [],
      "name": "totalSupply",
      "outputs": [
        {
          "name": "",
          "type": "uint256"
        }
      ],
      "payable": false,
      "stateMutability": "view",
      "type": "function"
    },
    {
      "constant": false,
      "inputs": [
        {
          "name": "_from",
          "type": "address"
        },
        {
          "name": "_to",
          "type": "address"
        },
        {
          "name": "_value",
          "type": "uint256"
        }
      ],
      "name": "transferFrom",
      "outputs": [
        {
          "name": "success",
          "type": "bool"
        }
      ],
      "payable": false,
      "stateMutability": "nonpayable",
      "type": "function"
    },
    {
      "constant": true,
      "inputs": [],
      "name": "decimals",
      "outputs": [
        {
          "name": "",
          "type": "uint8"
        }
      ],
      "payable": false,
      "stateMutability": "view",
      "type": "function"
    },
    {
      "constant": true,
      "inputs": [
        {
          "name": "_owner",
          "type": "address"
        }
      ],
      "name": "balanceOf",
      "outputs": [
        {
          "name": "balance",
          "type": "uint256"
        }
      ],
      "payable": false,
      "stateMutability": "view",
      "type": "function"
    },
    {
      "constant": true,
      "inputs": [],
      "name": "owner",
      "outputs": [
        {
          "name": "",
          "type": "address"
        }
      ],
      "payable": false,
      "stateMutability": "view",
      "type": "function"
    },
    {
      "constant": true,
      "inputs": [],
      "name": "symbol",
      "outputs": [
        {
          "name": "",
          "type": "string"
        }
      ],
      "payable": false,
      "stateMutability": "view",
      "type": "function"
    },
    {
      "constant": false,
      "inputs": [
        {
          "name": "_to",
          "type": "address"
        },
        {
          "name": "_value",
          "type": "uint256"
        }
      ],
      "name": "transfer",
      "outputs": [
        {
          "name": "success",
          "type": "bool"
        }
      ],
      "payable": false,
      "stateMutability": "nonpayable",
      "type": "function"
    },
    {
      "constant": true,
      "inputs": [
        {
          "name": "",
          "type": "address"
        }
      ],
      "name": "payout_withdrawals",
      "outputs": [
        {
          "name": "",
          "type": "uint256"
        }
      ],
      "payable": false,
      "stateMutability": "view",
      "type": "function"
    },
    {
      "constant": true,
      "inputs": [
        {
          "name": "_owner",
          "type": "address"
        },
        {
          "name": "_spender",
          "type": "address"
        }
      ],
      "name": "allowance",
      "outputs": [
        {
          "name": "remaining",
          "type": "uint256"
        }
      ],
      "payable": false,
      "stateMutability": "view",
      "type": "function"
    },
    {
      "constant": true,
      "inputs": [],
      "name": "epochs_start",
      "outputs": [
        {
          "name": "",
          "type": "uint256"
        }
      ],
      "payable": false,
      "stateMutability": "view",
      "type": "function"
    },
    {
      "inputs": [],
      "payable": false,
      "stateMutability": "nonpayable",
      "type": "constructor"
    },
    {
      "anonymous": false,
      "inputs": [
        {
          "indexed": true,
          "name": "_from",
          "type": "address"
        },
        {
          "indexed": true,
          "name": "_to",
          "type": "address"
        },
        {
          "indexed": false,
          "name": "_value",
          "type": "uint256"
        }
      ],
      "name": "Transfer",
      "type": "event"
    },
    {
      "anonymous": false,
      "inputs": [
        {
          "indexed": true,
          "name": "_owner",
          "type": "address"
        },
        {
          "indexed": true,
          "name": "_spender",
          "type": "address"
        },
        {
          "indexed": false,
          "name": "_value",
          "type": "uint256"
        }
      ],
      "name": "Approval",
      "type": "event"
    },
    {
      "constant": true,
      "inputs": [],
      "name": "mintedAmountPerEpoch",
      "outputs": [
        {
          "name": "",
          "type": "uint256"
        }
      ],
      "payable": false,
      "stateMutability": "pure",
      "type": "function"
    },
    {
      "constant": false,
      "inputs": [
        {
          "name": "_epoch",
          "type": "uint256"
        },
        {
          "name": "_root",
          "type": "bytes32"
        }
      ],
      "name": "submitPayoutRoot",
      "outputs": [],
      "payable": false,
      "stateMutability": "nonpayable",
      "type": "function"
    },
    {
      "constant": false,
      "inputs": [
        {
          "name": "_epoch",
          "type": "uint256"
        },
        {
          "name": "_proof",
          "type": "bytes32[]"
        },
        {
          "name": "_account",
          "type": "address"
        },
        {
          "name": "_amount",
          "type": "uint256"
        }
      ],
      "name": "redeemPayout",
      "outputs": [],
      "payable": false,
      "stateMutability": "nonpayable",
      "type": "function"
    },
    {
      "constant": true,
      "inputs": [
        {
          "name": "_epoch",
          "type": "uint256"
        },
        {
          "name": "_proof",
          "type": "bytes32[]"
        },
        {
          "name": "_account",
          "type": "address"
        },
        {
          "name": "_amount",
          "type": "uint256"
        }
      ],
      "name": "verifyPayout",
      "outputs": [
        {
          "name": "",
          "type": "bool"
        }
      ],
      "payable": false,
      "stateMutability": "view",
      "type": "function"
    },
    {
      "constant": true,
      "inputs": [
        {
          "name": "_proof",
          "type": "bytes32[]"
        },
        {
          "name": "_root",
          "type": "bytes32"
        },
        {
          "name": "_leaf",
          "type": "bytes32"
        }
      ],
      "name": "verifyProof",
      "outputs": [
        {
          "name": "",
          "type": "bool"
        }
      ],
      "payable": false,
      "stateMutability": "pure",
      "type": "function"
    }
  ],
  "bytecode": "0x608060405234801561001057600080fd5b50604080518082018252600a81527f524c415920546f6b656e0000000000000000000000000000000000000000000060208083019182528351808501855260048082527f524c4159000000000000000000000000000000000000000000000000000000008284015233600090815292529381206b033b2e3c9fd0803ce800000090819055908190558251909360129290916100ad916001916100f0565b506002805460ff191660ff841617905580516100d09060039060208401906100f0565b505060068054600160a060020a031916331790555050436007555061018b565b828054600181600116156101000203166002900490600052602060002090601f016020900481019282601f1061013157805160ff191683800117855561015e565b8280016001018555821561015e579182015b8281111561015e578251825591602001919060010190610143565b5061016a92915061016e565b5090565b61018891905b8082111561016a5760008155600101610174565b90565b610c3f8061019a6000396000f3006080604052600436106100fb5763ffffffff7c010000000000000000000000000000000000000000000000000000000060003504166306fdde038114610100578063095ea7b31461018a578063146152dd146101c257806318160ddd146101ec578063210038ef1461020157806323b872dd1461021e5780632bc5c27414610248578063313ce5671461025d5780633654ada0146102885780634bc935d7146102f357806370a08231146103515780638da5cb5b1461037257806395d89b41146103a3578063a9059cbb146103b8578063beadeeb8146103dc578063d34e2dcc146103fd578063dd62ed3e14610468578063f53cc8e51461048f575b600080fd5b34801561010c57600080fd5b506101156104a4565b6040805160208082528351818301528351919283929083019185019080838360005b8381101561014f578181015183820152602001610137565b50505050905090810190601f16801561017c5780820380516001836020036101000a031916815260200191505b509250505060405180910390f35b34801561019657600080fd5b506101ae600160a060020a0360043516602435610531565b604080519115158252519081900360200190f35b3480156101ce57600080fd5b506101da600435610597565b60408051918252519081900360200190f35b3480156101f857600080fd5b506101da6105a9565b34801561020d57600080fd5b5061021c6004356024356105af565b005b34801561022a57600080fd5b506101ae600160a060020a036004358116906024351660443561065c565b34801561025457600080fd5b506101da610760565b34801561026957600080fd5b5061027261076d565b6040805160ff9092168252519081900360200190f35b34801561029457600080fd5b506040805160206004602480358281013584810280870186019097528086526101ae9684359636966044959194909101929182918501908490808284375094975050508335600160a060020a0316945050506020909101359050610776565b3480156102ff57600080fd5b50604080516020600480358082013583810280860185019096528085526101ae9536959394602494938501929182918501908490808284375094975050843595505050602090920135915061085d9050565b34801561035d57600080fd5b506101da600160a060020a0360043516610872565b34801561037e57600080fd5b5061038761088d565b60408051600160a060020a039092168252519081900360200190f35b3480156103af57600080fd5b5061011561089c565b3480156103c457600080fd5b506101ae600160a060020a03600435166024356108f7565b3480156103e857600080fd5b506101da600160a060020a0360043516610981565b34801561040957600080fd5b5060408051602060046024803582810135848102808701860190975280865261021c9684359636966044959194909101929182918501908490808284375094975050508335600160a060020a0316945050506020909101359050610993565b34801561047457600080fd5b506101da600160a060020a0360043581169060243516610b3b565b34801561049b57600080fd5b506101da610b66565b60018054604080516020600284861615610100026000190190941693909304601f810184900484028201840190925281815292918301828280156105295780601f106104fe57610100808354040283529160200191610529565b820191906000526020600020905b81548152906001019060200180831161050c57829003601f168201915b505050505081565b336000818152600560209081526040808320600160a060020a038716808552908352818420869055815186815291519394909390927f8c5be1e5ebec7d5bd14f71427d1e84f3dd0314c0f7b2291e5b200ac8c7c3b925928290030190a350600192915050565b60086020526000908152604090205481565b60005481565b600654600090600160a060020a031633146105c957600080fd5b60008381526008602052604090208290556105e2610760565b90506105f060005482610b6c565b60009081553081526004602052604090205461060c9082610b6c565b3060008181526004602090815260408083209490945583518581529351929391927fddf252ad1be2c89b69c2b068fc378daa952ba7f163c4a11628f55a4df523b3ef9281900390910190a3505050565b600160a060020a03831660008181526005602090815260408083203384528252808320549383526004909152812054909190831180159061069d5750828110155b15156106a857600080fd5b600160a060020a038085166000908152600460205260408082208054870190559187168152208054849003905560001981101561070a57600160a060020a03851660009081526005602090815260408083203384529091529020805484900390555b83600160a060020a031685600160a060020a03167fddf252ad1be2c89b69c2b068fc378daa952ba7f163c4a11628f55a4df523b3ef856040518082815260200191505060405180910390a3506001949350505050565b68015af1d78b58c4000090565b60025460ff1681565b6000606060008085856040516020018083600160a060020a0316600160a060020a03166c01000000000000000000000000028152601401828152602001925050506040516020818303038152906040529250826040518082805190602001908083835b602083106107f85780518252601f1990920191602091820191016107d9565b51815160209384036101000a6000190180199092169116179052604080519290940182900382208252835191829003810190912060008e815260089092529290205491955090935061085192508991508390508461085d565b98975050505050505050565b600061086a848484610b7f565b949350505050565b600160a060020a031660009081526004602052604090205490565b600654600160a060020a031681565b6003805460408051602060026001851615610100026000190190941693909304601f810184900484028201840190925281815292918301828280156105295780601f106104fe57610100808354040283529160200191610529565b3360009081526004602052604081205482111561091357600080fd5b33600081815260046020908152604080832080548790039055600160a060020a03871680845292819020805487019055805186815290519293927fddf252ad1be2c89b69c2b068fc378daa952ba7f163c4a11628f55a4df523b3ef929181900390910190a350600192915050565b60096020526000908152604090205481565b6000806109a286868686610776565b15156109ad57600080fd5b600160a060020a03841660009081526009602052604090205491506109d28383610c01565b905060008111610a6957604080517f08c379a000000000000000000000000000000000000000000000000000000000815260206004820152603360248201527f4e6f7420706f737369626c6520746f2077697468647261772061206e6567617460448201527f697665206f72207a65726f20616d6f756e742e00000000000000000000000000606482015290519081900360840190fd5b30600090815260046020526040902054610a839082610c01565b3060009081526004602052604080822092909255600160a060020a03861681522054610aaf9082610b6c565b600160a060020a038516600090815260046020908152604080832093909355600990522054610ade9082610b6c565b600160a060020a0385166000818152600960209081526040918290209390935580518481529051919230927fddf252ad1be2c89b69c2b068fc378daa952ba7f163c4a11628f55a4df523b3ef9281900390910190a3505050505050565b600160a060020a03918216600090815260056020908152604080832093909416825291909152205490565b60075481565b81810182811015610b7957fe5b92915050565b60008181805b8651821015610bf4578682815181101515610b9c57fe5b60209081029091010151905080831015610bce5760408051938452602084018290528051938490030190922091610be9565b60408051828152602081019490945280519384900301909220915b600190910190610b85565b5050929092149392505050565b600082821115610c0d57fe5b509003905600a165627a7a723058205d294e42356cb1c132eae80319da50e977a85d3413a6a18419d0969acd34307a0029",
  "source": "pragma solidity ^0.4.19;\n\nimport \"tokens/eip20/EIP20.sol\";\nimport \"openzeppelin-solidity/contracts/math/SafeMath.sol\";\nimport \"openzeppelin-solidity/contracts/MerkleProof.sol\";\n\ncontract RlayToken is EIP20 {\n    // owner required for temporary workaround of permissioned payout calculation\n    address public owner;\n    // start block of all epochs\n    uint256 public epochs_start;\n    // mapping of epochs to the merkle root of the payouts for that epoch\n    mapping (uint256 => bytes32) public payout_roots;\n    // keeps track of the total withrawals made for a address\n    mapping (address => uint256) public payout_withdrawals;\n\n    function RlayToken() EIP20(\n        1000000000000000000000000000,\n        \"RLAY Token\",\n        18,\n        \"RLAY\"\n    ) public {\n        owner = msg.sender;\n        epochs_start = block.number;\n    }\n\n    function mintedAmountPerEpoch()\n        public\n        pure\n    returns (uint256) {\n        return 25000000000000000000;\n    }\n\n    // Add a new payout root for a epoch\n    //\n    // Submiting a new payout merkle root currently works in a permissioned way,\n    // where only the token issuer can submit a new root.\n    // We intend to transition to a permissionless way to submit the payout root\n    // before launch of the mainnet, with zkSNARKs and Truebit being possible solutions.\n    function submitPayoutRoot(\n        uint256 _epoch,\n        bytes32 _root\n    )\n        public\n    {\n        require(msg.sender == owner);\n        payout_roots[_epoch] = _root;\n\n        uint256 _mintedAmount = mintedAmountPerEpoch();\n        totalSupply = SafeMath.add(totalSupply, _mintedAmount);\n        balances[this] = SafeMath.add(balances[this], _mintedAmount);\n\n        emit Transfer(address(0), this, _mintedAmount);\n    }\n\n    function redeemPayout(\n        uint256 _epoch,\n        bytes32[] _proof,\n        address _account,\n        uint256 _amount // Accumulated amount at that payout epoch\n    )\n        public\n    {\n        require(verifyPayout(_epoch, _proof, _account, _amount));\n\n        // Calculate the remaining eligable payout for the account (subtract previous withrawals)\n        uint256 _withdrawals_for_account = payout_withdrawals[_account];\n        uint256 _withdrawal_amount = SafeMath.sub(_amount, _withdrawals_for_account);\n        require(_withdrawal_amount > 0, \"Not possible to withdraw a negative or zero amount.\");\n\n        // Adjust balances and withdrawal tracker\n        balances[this] = SafeMath.sub(balances[this], _withdrawal_amount);\n        balances[_account] = SafeMath.add(balances[_account], _withdrawal_amount);\n        payout_withdrawals[_account] = SafeMath.add(payout_withdrawals[_account], _withdrawal_amount);\n        emit Transfer(this, _account, _withdrawal_amount);\n    }\n\n    function verifyPayout(\n        uint256 _epoch,\n        bytes32[] _proof,\n        address _account,\n        uint256 _amount // Accumulated amount at that payout epoch\n    )\n        public\n        view\n        returns (bool)\n    {\n        // Construct leaf hash and verify proof\n        bytes memory _leaf_data = abi.encodePacked(_account, _amount);\n        bytes32 _leaf = keccak256(keccak256(_leaf_data));\n        bytes32 _epoch_root = payout_roots[_epoch];\n        return verifyProof(_proof, _epoch_root, _leaf);\n    }\n\n    function verifyProof(\n        bytes32[] _proof,\n        bytes32 _root,\n        bytes32 _leaf\n    )\n        public\n        pure\n        returns (bool)\n    {\n        return MerkleProof.verifyProof(_proof, _root, _leaf);\n    }\n}\n",
  "sourcePath": "/Users/hobofan/rlay/rlay-protocol/contracts/RlayToken.sol",
  "compiler": {
    "name": "solc",
    "version": "0.4.24+commit.e67f0147.Emscripten.clang"
  },
  "schemaVersion": "2.0.0",
  "updatedAt": "2019-03-01T18:16:31.704Z"
}