{
  "contractName": "DataSomeValuesFromStorage",
  "abi": [
    {
      "anonymous": false,
      "inputs": [
        {
          "indexed": false,
          "name": "_cid",
          "type": "bytes"
        }
      ],
      "name": "DataSomeValuesFromStored",
      "type": "event"
    },
    {
      "constant": false,
      "inputs": [
        {
          "name": "_annotations",
          "type": "bytes[]"
        },
        {
          "name": "_superClassExpression",
          "type": "bytes[]"
        }
      ],
      "name": "storeDataSomeValuesFrom",
      "outputs": [
        {
          "name": "",
          "type": "bytes"
        }
      ],
      "payable": false,
      "stateMutability": "nonpayable",
      "type": "function"
    },
    {
      "constant": true,
      "inputs": [
        {
          "name": "_cid",
          "type": "bytes"
        }
      ],
      "name": "retrieveDataSomeValuesFrom",
      "outputs": [
        {
          "name": "_annotations",
          "type": "bytes[]"
        },
        {
          "name": "_superClassExpression",
          "type": "bytes[]"
        }
      ],
      "payable": false,
      "stateMutability": "view",
      "type": "function"
    },
    {
      "constant": true,
      "inputs": [
        {
          "components": [
            {
              "name": "annotations",
              "type": "bytes[]"
            },
            {
              "name": "superClassExpression",
              "type": "bytes[]"
            }
          ],
          "name": "_instance",
          "type": "tuple"
        }
      ],
      "name": "hashDataSomeValuesFrom",
      "outputs": [
        {
          "name": "",
          "type": "bytes32"
        }
      ],
      "payable": false,
      "stateMutability": "view",
      "type": "function"
    },
    {
      "constant": true,
      "inputs": [
        {
          "name": "_annotations",
          "type": "bytes[]"
        },
        {
          "name": "_superClassExpression",
          "type": "bytes[]"
        }
      ],
      "name": "calculateCidDataSomeValuesFrom",
      "outputs": [
        {
          "name": "_cid",
          "type": "bytes"
        }
      ],
      "payable": false,
      "stateMutability": "view",
      "type": "function"
    }
  ],
  "bytecode": "0x608060405234801561001057600080fd5b50610eba806100206000396000f3006080604052600436106100615763ffffffff7c010000000000000000000000000000000000000000000000000000000060003504166325b113b1811461006657806349cc3bd51461009c5780637b30babc146100ca578063a61a9f68146100f7575b600080fd5b34801561007257600080fd5b50610086610081366004610c8d565b610117565b6040516100939190610d9a565b60405180910390f35b3480156100a857600080fd5b506100bc6100b7366004610c4b565b61018c565b604051610093929190610d75565b3480156100d657600080fd5b506100ea6100e5366004610be2565b6103a7565b6040516100939190610da8565b34801561010357600080fd5b506100ea610112366004610be2565b61048a565b600060606000610126846104e9565b9150816040518082805190602001908083835b602083106101585780518252601f199092019160209182019101610139565b5181516020939093036101000a60001901801990911692169190911790526040519201829003909120979650505050505050565b606080600061019961089f565b6101d286868080601f0160208091040260200160405190810160405280939291908181526020018383808284375061053c945050505050565b60008181526020818152604080832081518154606094810282018501845292810183815295975094909385939192859290919085015b828210156102b35760008481526020908190208301805460408051601f600260001961010060018716150201909416939093049283018590048502810185019091528181529283018282801561029f5780601f106102745761010080835404028352916020019161029f565b820191906000526020600020905b81548152906001019060200180831161028257829003601f168201915b505050505081526020019060010190610208565b50505050815260200160018201805480602002602001604051908101604052809291908181526020016000905b8282101561038b5760008481526020908190208301805460408051601f60026000196101006001871615020190941693909304928301859004850281018501909152818152928301828280156103775780601f1061034c57610100808354040283529160200191610377565b820191906000526020600020905b81548152906001019060200180831161035a57829003601f168201915b5050505050815260200190600101906102e0565b5050509152505080516020909101519097909650945050505050565b60606103b161089f565b506040805180820190915283815260208101839052600060606103d383610117565b60008181526020818152604090912085518051939550869391926103fc928492909101906108b6565b50602082810151805161041592600185019201906108b6565b5061044491507f018c80031b200000000000000000000000000000000000000000000000000000905083610543565b90507fe1e828e6c7340d906af1caf4a46693dbcca4e19edc195d1acca8fecc0797fc4b816040516104759190610da8565b60405180910390a18093505b50505092915050565b606061049461089f565b50604080518082019091528381526020810183905260006104b482610117565b90506104e07f018c80031b20000000000000000000000000000000000000000000000000000082610543565b95945050505050565b60608060006104f784610682565b6040519080825280601f01601f191660200182016040528015610524578160200160208202803883390190505b509150610533846020846106fb565b82525092915050565b6026015190565b60408051602680825260608083019093528291600091829190602082016104c080388339019050509250600091505b60068210156105f35785826006811061058757fe5b1a7f01000000000000000000000000000000000000000000000000000000000000000283838151811015156105b857fe5b9060200101907effffffffffffffffffffffffffffffffffffffffffffffffffffffffffffff1916908160001a905350600190910190610572565b5060005b60208110156106785784816020811061060c57fe5b1a7f010000000000000000000000000000000000000000000000000000000000000002838260060181518110151561064057fe5b9060200101907effffffffffffffffffffffffffffffffffffffffffffffffffffffffffffff1916908160001a9053506001016105f7565b5090949350505050565b600080805b8351518110156106c157835180516106b49190839081106106a457fe5b906020019060200201515161079a565b6001920182019101610687565b5060005b8360200151518110156106f4576106e78460200151828151811015156106a457fe5b60019201820191016106c5565b5092915050565b600082815b85515181101561074c576107186001600287876107ad565b865180519190960195610740918390811061072f57fe5b9060200190602002015186866107cd565b90940193600101610700565b5060005b85602001515181101561078f5761076a60028087876107ad565b8501945061078386602001518281518110151561072f57fe5b90940193600101610750565b509092039392505050565b60006107a582610819565b909101919050565b60006008850260078516176107c3818585610839565b9695505050505050565b825160009081806107df838787610839565b9150600090508186018501602088015b84831461080d57805160001a825360019283019291820191016107ef565b50500195945050505050565b600060015b8060070260020a83106108335760010161081e565b92915050565b60008082840181805b607f8460070260020a8904169150607f6001850160070260020a89041690506000811461088057816080178353600183019250600184019350610842565b607f8460070260020a8904169150818353505050600101949350505050565b604080518082019091526060808252602082015290565b828054828255906000526020600020908101928215610903579160200282015b8281111561090357825180516108f3918491602090910190610913565b50916020019190600101906108d6565b5061090f92915061098d565b5090565b828054600181600116156101000203166002900490600052602060002090601f016020900481019282601f1061095457805160ff1916838001178555610981565b82800160010185558215610981579182015b82811115610981578251825591602001919060010190610966565b5061090f9291506109b3565b6109b091905b8082111561090f5760006109a782826109cd565b50600101610993565b90565b6109b091905b8082111561090f57600081556001016109b9565b50805460018160011615610100020316600290046000825580601f106109f35750610a11565b601f016020900490600052602060002090810190610a1191906109b3565b50565b6000601f82018313610a2557600080fd5b8135610a38610a3382610de7565b610dc0565b81815260209384019390925082018360005b83811015610a765781358601610a608882610b26565b8452506020928301929190910190600101610a4a565b5050505092915050565b6000601f82018313610a9157600080fd5b8135610a9f610a3382610de7565b81815260209384019390925082018360005b83811015610a765781358601610ac78882610b26565b8452506020928301929190910190600101610ab1565b600080601f83018413610aef57600080fd5b50813567ffffffffffffffff811115610b0757600080fd5b602083019150836001820283011115610b1f57600080fd5b9250929050565b6000601f82018313610b3757600080fd5b8135610b45610a3382610e08565b91508082526020830160208301858383011115610b6157600080fd5b610481838284610e3a565b600060408284031215610b7e57600080fd5b610b886040610dc0565b9050813567ffffffffffffffff811115610ba157600080fd5b610bad84828501610a14565b825250602082013567ffffffffffffffff811115610bca57600080fd5b610bd684828501610a14565b60208301525092915050565b60008060408385031215610bf557600080fd5b823567ffffffffffffffff811115610c0c57600080fd5b610c1885828601610a80565b925050602083013567ffffffffffffffff811115610c3557600080fd5b610c4185828601610a80565b9150509250929050565b60008060208385031215610c5e57600080fd5b823567ffffffffffffffff811115610c7557600080fd5b610c8185828601610add565b92509250509250929050565b600060208284031215610c9f57600080fd5b813567ffffffffffffffff811115610cb657600080fd5b610cc284828501610b6c565b949350505050565b6000610cd582610e36565b80845260208401935083602082028501610cee85610e30565b60005b84811015610d25578383038852610d09838351610d40565b9250610d1482610e30565b602098909801979150600101610cf1565b50909695505050505050565b610d3a816109b0565b82525050565b6000610d4b82610e36565b808452610d5f816020860160208601610e46565b610d6881610e76565b9093016020019392505050565b60408082528101610d868185610cca565b90508181036020830152610cc28184610cca565b602081016108338284610d31565b60208082528101610db98184610d40565b9392505050565b60405181810167ffffffffffffffff81118282101715610ddf57600080fd5b604052919050565b600067ffffffffffffffff821115610dfe57600080fd5b5060209081020190565b600067ffffffffffffffff821115610e1f57600080fd5b506020601f91909101601f19160190565b60200190565b5190565b82818337506000910152565b60005b83811015610e61578181015183820152602001610e49565b83811115610e70576000848401525b50505050565b601f01601f1916905600a265627a7a72305820ecef20f70f4aede3f0a42f3a4ee113ea08b602a3cbd9e6eefb8f5157aa2e4b436c6578706572696d656e74616cf50037",
  "source": "pragma solidity ^0.4.21;\npragma experimental ABIEncoderV2;\n\nimport \"./cid.sol\";\nimport \"./pb_mod.sol\";\n\ninterface IClassStorage {\n    function storeClass(bytes[] _annotations, bytes[] _superClassExpression) public returns (bytes);\n\n    function retrieveClass(bytes _cid) external view returns (bytes[] _annotations, bytes[] _superClassExpression);\n\n}\n\ninterface IObjectIntersectionOfStorage {\n    function storeObjectIntersectionOf(bytes[] _annotations, bytes[] _superClassExpression) public returns (bytes);\n\n    function retrieveObjectIntersectionOf(bytes _cid) external view returns (bytes[] _annotations, bytes[] _superClassExpression);\n\n}\n\ninterface IObjectUnionOfStorage {\n    function storeObjectUnionOf(bytes[] _annotations, bytes[] _superClassExpression) public returns (bytes);\n\n    function retrieveObjectUnionOf(bytes _cid) external view returns (bytes[] _annotations, bytes[] _superClassExpression);\n\n}\n\ninterface IObjectComplementOfStorage {\n    function storeObjectComplementOf(bytes _complementOf, bytes[] _annotations, bytes[] _superClassExpression) public returns (bytes);\n\n    function retrieveObjectComplementOf(bytes _cid) external view returns (bytes _complementOf, bytes[] _annotations, bytes[] _superClassExpression);\n\n}\n\ninterface IObjectOneOfStorage {\n    function storeObjectOneOf(bytes[] _annotations, bytes[] _superClassExpression) public returns (bytes);\n\n    function retrieveObjectOneOf(bytes _cid) external view returns (bytes[] _annotations, bytes[] _superClassExpression);\n\n}\n\ninterface IObjectSomeValuesFromStorage {\n    function storeObjectSomeValuesFrom(bytes[] _annotations, bytes[] _superClassExpression) public returns (bytes);\n\n    function retrieveObjectSomeValuesFrom(bytes _cid) external view returns (bytes[] _annotations, bytes[] _superClassExpression);\n\n}\n\ninterface IObjectAllValuesFromStorage {\n    function storeObjectAllValuesFrom(bytes[] _annotations, bytes[] _superClassExpression) public returns (bytes);\n\n    function retrieveObjectAllValuesFrom(bytes _cid) external view returns (bytes[] _annotations, bytes[] _superClassExpression);\n\n}\n\ninterface IObjectHasValueStorage {\n    function storeObjectHasValue(bytes[] _annotations, bytes[] _superClassExpression) public returns (bytes);\n\n    function retrieveObjectHasValue(bytes _cid) external view returns (bytes[] _annotations, bytes[] _superClassExpression);\n\n}\n\ninterface IObjectHasSelfStorage {\n    function storeObjectHasSelf(bytes[] _annotations, bytes[] _superClassExpression) public returns (bytes);\n\n    function retrieveObjectHasSelf(bytes _cid) external view returns (bytes[] _annotations, bytes[] _superClassExpression);\n\n}\n\ninterface IObjectMinCardinalityStorage {\n    function storeObjectMinCardinality(bytes[] _annotations, bytes[] _superClassExpression) public returns (bytes);\n\n    function retrieveObjectMinCardinality(bytes _cid) external view returns (bytes[] _annotations, bytes[] _superClassExpression);\n\n}\n\ninterface IObjectMaxCardinalityStorage {\n    function storeObjectMaxCardinality(bytes[] _annotations, bytes[] _superClassExpression) public returns (bytes);\n\n    function retrieveObjectMaxCardinality(bytes _cid) external view returns (bytes[] _annotations, bytes[] _superClassExpression);\n\n}\n\ninterface IObjectExactCardinalityStorage {\n    function storeObjectExactCardinality(bytes[] _annotations, bytes[] _superClassExpression) public returns (bytes);\n\n    function retrieveObjectExactCardinality(bytes _cid) external view returns (bytes[] _annotations, bytes[] _superClassExpression);\n\n}\n\ninterface IDataSomeValuesFromStorage {\n    function storeDataSomeValuesFrom(bytes[] _annotations, bytes[] _superClassExpression) public returns (bytes);\n\n    function retrieveDataSomeValuesFrom(bytes _cid) external view returns (bytes[] _annotations, bytes[] _superClassExpression);\n\n}\n\ninterface IDataAllValuesFromStorage {\n    function storeDataAllValuesFrom(bytes[] _annotations, bytes[] _superClassExpression) public returns (bytes);\n\n    function retrieveDataAllValuesFrom(bytes _cid) external view returns (bytes[] _annotations, bytes[] _superClassExpression);\n\n}\n\ninterface IDataHasValueStorage {\n    function storeDataHasValue(bytes[] _annotations, bytes[] _superClassExpression) public returns (bytes);\n\n    function retrieveDataHasValue(bytes _cid) external view returns (bytes[] _annotations, bytes[] _superClassExpression);\n\n}\n\ninterface IDataMinCardinalityStorage {\n    function storeDataMinCardinality(bytes[] _annotations, bytes[] _superClassExpression) public returns (bytes);\n\n    function retrieveDataMinCardinality(bytes _cid) external view returns (bytes[] _annotations, bytes[] _superClassExpression);\n\n}\n\ninterface IDataMaxCardinalityStorage {\n    function storeDataMaxCardinality(bytes[] _annotations, bytes[] _superClassExpression) public returns (bytes);\n\n    function retrieveDataMaxCardinality(bytes _cid) external view returns (bytes[] _annotations, bytes[] _superClassExpression);\n\n}\n\ninterface IDataExactCardinalityStorage {\n    function storeDataExactCardinality(bytes[] _annotations, bytes[] _superClassExpression) public returns (bytes);\n\n    function retrieveDataExactCardinality(bytes _cid) external view returns (bytes[] _annotations, bytes[] _superClassExpression);\n\n}\n\ninterface IObjectPropertyStorage {\n    function storeObjectProperty(bytes[] _annotations, bytes[] _superObjectPropertyExpression) public returns (bytes);\n\n    function retrieveObjectProperty(bytes _cid) external view returns (bytes[] _annotations, bytes[] _superObjectPropertyExpression);\n\n}\n\ninterface IInverseObjectPropertyStorage {\n    function storeInverseObjectProperty(bytes[] _annotations, bytes[] _superObjectPropertyExpression) public returns (bytes);\n\n    function retrieveInverseObjectProperty(bytes _cid) external view returns (bytes[] _annotations, bytes[] _superObjectPropertyExpression);\n\n}\n\ninterface IDataPropertyStorage {\n    function storeDataProperty(bytes[] _annotations, bytes[] _superDataPropertyExpression) public returns (bytes);\n\n    function retrieveDataProperty(bytes _cid) external view returns (bytes[] _annotations, bytes[] _superDataPropertyExpression);\n\n}\n\ninterface IAnnotationStorage {\n    function storeAnnotation(bytes[] _annotations, bytes _property, bytes _value) public returns (bytes);\n\n    function retrieveAnnotation(bytes _cid) external view returns (bytes[] _annotations, bytes _property, bytes _value);\n\n}\n\ninterface IIndividualStorage {\n    function storeIndividual(bytes[] _annotations, bytes[] _class_assertions, bytes[] _negative_class_assertions, bytes[] _object_property_assertions, bytes[] _negative_object_property_assertions, bytes[] _data_property_assertions, bytes[] _negative_data_property_assertions) public returns (bytes);\n\n    function retrieveIndividual(bytes _cid) external view returns (bytes[] _annotations, bytes[] _class_assertions, bytes[] _negative_class_assertions, bytes[] _object_property_assertions, bytes[] _negative_object_property_assertions, bytes[] _data_property_assertions, bytes[] _negative_data_property_assertions);\n\n}\n\ninterface IAnnotationPropertyStorage {\n    function storeAnnotationProperty(bytes[] _annotations) public returns (bytes);\n\n    function retrieveAnnotationProperty(bytes _cid) external view returns (bytes[] _annotations);\n\n}\n\ninterface IClassAssertionStorage {\n    function storeClassAssertion(bytes[] _annotations, bytes _subject, bytes _class) public returns (bytes);\n\n    function retrieveClassAssertion(bytes _cid) external view returns (bytes[] _annotations, bytes _subject, bytes _class);\n\n}\n\ninterface INegativeClassAssertionStorage {\n    function storeNegativeClassAssertion(bytes[] _annotations, bytes _subject, bytes _class) public returns (bytes);\n\n    function retrieveNegativeClassAssertion(bytes _cid) external view returns (bytes[] _annotations, bytes _subject, bytes _class);\n\n}\n\ninterface IObjectPropertyAssertionStorage {\n    function storeObjectPropertyAssertion(bytes[] _annotations, bytes _subject, bytes _property, bytes _target) public returns (bytes);\n\n    function retrieveObjectPropertyAssertion(bytes _cid) external view returns (bytes[] _annotations, bytes _subject, bytes _property, bytes _target);\n\n}\n\ninterface INegativeObjectPropertyAssertionStorage {\n    function storeNegativeObjectPropertyAssertion(bytes[] _annotations, bytes _subject, bytes _property, bytes _target) public returns (bytes);\n\n    function retrieveNegativeObjectPropertyAssertion(bytes _cid) external view returns (bytes[] _annotations, bytes _subject, bytes _property, bytes _target);\n\n}\n\ninterface IDataPropertyAssertionStorage {\n    function storeDataPropertyAssertion(bytes[] _annotations, bytes _subject, bytes _property, bytes _target) public returns (bytes);\n\n    function retrieveDataPropertyAssertion(bytes _cid) external view returns (bytes[] _annotations, bytes _subject, bytes _property, bytes _target);\n\n}\n\ninterface INegativeDataPropertyAssertionStorage {\n    function storeNegativeDataPropertyAssertion(bytes[] _annotations, bytes _subject, bytes _property, bytes _target) public returns (bytes);\n\n    function retrieveNegativeDataPropertyAssertion(bytes _cid) external view returns (bytes[] _annotations, bytes _subject, bytes _property, bytes _target);\n\n}\n\ninterface IAnnotationAssertionStorage {\n    function storeAnnotationAssertion(bytes[] _annotations, bytes _subject, bytes _property, bytes _value) public returns (bytes);\n\n    function retrieveAnnotationAssertion(bytes _cid) external view returns (bytes[] _annotations, bytes _subject, bytes _property, bytes _value);\n\n}\n\ninterface INegativeAnnotationAssertionStorage {\n    function storeNegativeAnnotationAssertion(bytes[] _annotations, bytes _subject, bytes _property, bytes _value) public returns (bytes);\n\n    function retrieveNegativeAnnotationAssertion(bytes _cid) external view returns (bytes[] _annotations, bytes _subject, bytes _property, bytes _value);\n\n}\n\ncontract ClassStorage is IClassStorage {\n    mapping (bytes32 => ClassCodec.Class) private class_hash_map;\n\n    bytes6 constant cidPrefixClass = 0x018080031b20;\n\n    event ClassStored(bytes _cid);\n\n    function storeClass(bytes[] _annotations, bytes[] _superClassExpression) public returns (bytes) {\n        ClassCodec.Class memory _instance = ClassCodec.Class(_annotations, _superClassExpression);\n        bytes32 hash = hashClass(_instance);\n\n        class_hash_map[hash] = _instance;\n\n        bytes memory _cid = cid.wrapInCid(cidPrefixClass, hash);\n        emit ClassStored(_cid);\n        return _cid;\n    }\n\n    function retrieveClass(bytes _cid) external view returns (bytes[] _annotations, bytes[] _superClassExpression) {\n        bytes32 _hash = cid.unwrapCid(_cid);\n        ClassCodec.Class memory _instance = class_hash_map[_hash];\n        return (_instance.annotations, _instance.superClassExpression);\n    }\n\n    function hashClass(ClassCodec.Class memory _instance) public view returns (bytes32) {\n        bytes memory enc = ClassCodec.encode(_instance);\n        bytes32 hash = keccak256(enc);\n\n        return hash;\n    }\n\n    function calculateCidClass(bytes[] _annotations, bytes[] _superClassExpression) public view returns (bytes _cid) {\n        ClassCodec.Class memory _instance = ClassCodec.Class(_annotations, _superClassExpression);\n        bytes32 _hash = hashClass(_instance);\n        return cid.wrapInCid(cidPrefixClass, _hash);\n    }\n}\n\ncontract ObjectIntersectionOfStorage is IObjectIntersectionOfStorage {\n    mapping (bytes32 => ObjectIntersectionOfCodec.ObjectIntersectionOf) private objectintersectionof_hash_map;\n\n    bytes6 constant cidPrefixObjectIntersectionOf = 0x018180031b20;\n\n    event ObjectIntersectionOfStored(bytes _cid);\n\n    function storeObjectIntersectionOf(bytes[] _annotations, bytes[] _superClassExpression) public returns (bytes) {\n        ObjectIntersectionOfCodec.ObjectIntersectionOf memory _instance = ObjectIntersectionOfCodec.ObjectIntersectionOf(_annotations, _superClassExpression);\n        bytes32 hash = hashObjectIntersectionOf(_instance);\n\n        objectintersectionof_hash_map[hash] = _instance;\n\n        bytes memory _cid = cid.wrapInCid(cidPrefixObjectIntersectionOf, hash);\n        emit ObjectIntersectionOfStored(_cid);\n        return _cid;\n    }\n\n    function retrieveObjectIntersectionOf(bytes _cid) external view returns (bytes[] _annotations, bytes[] _superClassExpression) {\n        bytes32 _hash = cid.unwrapCid(_cid);\n        ObjectIntersectionOfCodec.ObjectIntersectionOf memory _instance = objectintersectionof_hash_map[_hash];\n        return (_instance.annotations, _instance.superClassExpression);\n    }\n\n    function hashObjectIntersectionOf(ObjectIntersectionOfCodec.ObjectIntersectionOf memory _instance) public view returns (bytes32) {\n        bytes memory enc = ObjectIntersectionOfCodec.encode(_instance);\n        bytes32 hash = keccak256(enc);\n\n        return hash;\n    }\n\n    function calculateCidObjectIntersectionOf(bytes[] _annotations, bytes[] _superClassExpression) public view returns (bytes _cid) {\n        ObjectIntersectionOfCodec.ObjectIntersectionOf memory _instance = ObjectIntersectionOfCodec.ObjectIntersectionOf(_annotations, _superClassExpression);\n        bytes32 _hash = hashObjectIntersectionOf(_instance);\n        return cid.wrapInCid(cidPrefixObjectIntersectionOf, _hash);\n    }\n}\n\ncontract ObjectUnionOfStorage is IObjectUnionOfStorage {\n    mapping (bytes32 => ObjectUnionOfCodec.ObjectUnionOf) private objectunionof_hash_map;\n\n    bytes6 constant cidPrefixObjectUnionOf = 0x018280031b20;\n\n    event ObjectUnionOfStored(bytes _cid);\n\n    function storeObjectUnionOf(bytes[] _annotations, bytes[] _superClassExpression) public returns (bytes) {\n        ObjectUnionOfCodec.ObjectUnionOf memory _instance = ObjectUnionOfCodec.ObjectUnionOf(_annotations, _superClassExpression);\n        bytes32 hash = hashObjectUnionOf(_instance);\n\n        objectunionof_hash_map[hash] = _instance;\n\n        bytes memory _cid = cid.wrapInCid(cidPrefixObjectUnionOf, hash);\n        emit ObjectUnionOfStored(_cid);\n        return _cid;\n    }\n\n    function retrieveObjectUnionOf(bytes _cid) external view returns (bytes[] _annotations, bytes[] _superClassExpression) {\n        bytes32 _hash = cid.unwrapCid(_cid);\n        ObjectUnionOfCodec.ObjectUnionOf memory _instance = objectunionof_hash_map[_hash];\n        return (_instance.annotations, _instance.superClassExpression);\n    }\n\n    function hashObjectUnionOf(ObjectUnionOfCodec.ObjectUnionOf memory _instance) public view returns (bytes32) {\n        bytes memory enc = ObjectUnionOfCodec.encode(_instance);\n        bytes32 hash = keccak256(enc);\n\n        return hash;\n    }\n\n    function calculateCidObjectUnionOf(bytes[] _annotations, bytes[] _superClassExpression) public view returns (bytes _cid) {\n        ObjectUnionOfCodec.ObjectUnionOf memory _instance = ObjectUnionOfCodec.ObjectUnionOf(_annotations, _superClassExpression);\n        bytes32 _hash = hashObjectUnionOf(_instance);\n        return cid.wrapInCid(cidPrefixObjectUnionOf, _hash);\n    }\n}\n\ncontract ObjectComplementOfStorage is IObjectComplementOfStorage {\n    mapping (bytes32 => ObjectComplementOfCodec.ObjectComplementOf) private objectcomplementof_hash_map;\n\n    bytes6 constant cidPrefixObjectComplementOf = 0x018380031b20;\n\n    event ObjectComplementOfStored(bytes _cid);\n\n    function storeObjectComplementOf(bytes _complementOf, bytes[] _annotations, bytes[] _superClassExpression) public returns (bytes) {\n        ObjectComplementOfCodec.ObjectComplementOf memory _instance = ObjectComplementOfCodec.ObjectComplementOf(_complementOf, _annotations, _superClassExpression);\n        bytes32 hash = hashObjectComplementOf(_instance);\n\n        objectcomplementof_hash_map[hash] = _instance;\n\n        bytes memory _cid = cid.wrapInCid(cidPrefixObjectComplementOf, hash);\n        emit ObjectComplementOfStored(_cid);\n        return _cid;\n    }\n\n    function retrieveObjectComplementOf(bytes _cid) external view returns (bytes _complementOf, bytes[] _annotations, bytes[] _superClassExpression) {\n        bytes32 _hash = cid.unwrapCid(_cid);\n        ObjectComplementOfCodec.ObjectComplementOf memory _instance = objectcomplementof_hash_map[_hash];\n        return (_instance.complementOf, _instance.annotations, _instance.superClassExpression);\n    }\n\n    function hashObjectComplementOf(ObjectComplementOfCodec.ObjectComplementOf memory _instance) public view returns (bytes32) {\n        bytes memory enc = ObjectComplementOfCodec.encode(_instance);\n        bytes32 hash = keccak256(enc);\n\n        return hash;\n    }\n\n    function calculateCidObjectComplementOf(bytes _complementOf, bytes[] _annotations, bytes[] _superClassExpression) public view returns (bytes _cid) {\n        ObjectComplementOfCodec.ObjectComplementOf memory _instance = ObjectComplementOfCodec.ObjectComplementOf(_complementOf, _annotations, _superClassExpression);\n        bytes32 _hash = hashObjectComplementOf(_instance);\n        return cid.wrapInCid(cidPrefixObjectComplementOf, _hash);\n    }\n}\n\ncontract ObjectOneOfStorage is IObjectOneOfStorage {\n    mapping (bytes32 => ObjectOneOfCodec.ObjectOneOf) private objectoneof_hash_map;\n\n    bytes6 constant cidPrefixObjectOneOf = 0x018480031b20;\n\n    event ObjectOneOfStored(bytes _cid);\n\n    function storeObjectOneOf(bytes[] _annotations, bytes[] _superClassExpression) public returns (bytes) {\n        ObjectOneOfCodec.ObjectOneOf memory _instance = ObjectOneOfCodec.ObjectOneOf(_annotations, _superClassExpression);\n        bytes32 hash = hashObjectOneOf(_instance);\n\n        objectoneof_hash_map[hash] = _instance;\n\n        bytes memory _cid = cid.wrapInCid(cidPrefixObjectOneOf, hash);\n        emit ObjectOneOfStored(_cid);\n        return _cid;\n    }\n\n    function retrieveObjectOneOf(bytes _cid) external view returns (bytes[] _annotations, bytes[] _superClassExpression) {\n        bytes32 _hash = cid.unwrapCid(_cid);\n        ObjectOneOfCodec.ObjectOneOf memory _instance = objectoneof_hash_map[_hash];\n        return (_instance.annotations, _instance.superClassExpression);\n    }\n\n    function hashObjectOneOf(ObjectOneOfCodec.ObjectOneOf memory _instance) public view returns (bytes32) {\n        bytes memory enc = ObjectOneOfCodec.encode(_instance);\n        bytes32 hash = keccak256(enc);\n\n        return hash;\n    }\n\n    function calculateCidObjectOneOf(bytes[] _annotations, bytes[] _superClassExpression) public view returns (bytes _cid) {\n        ObjectOneOfCodec.ObjectOneOf memory _instance = ObjectOneOfCodec.ObjectOneOf(_annotations, _superClassExpression);\n        bytes32 _hash = hashObjectOneOf(_instance);\n        return cid.wrapInCid(cidPrefixObjectOneOf, _hash);\n    }\n}\n\ncontract ObjectSomeValuesFromStorage is IObjectSomeValuesFromStorage {\n    mapping (bytes32 => ObjectSomeValuesFromCodec.ObjectSomeValuesFrom) private objectsomevaluesfrom_hash_map;\n\n    bytes6 constant cidPrefixObjectSomeValuesFrom = 0x018580031b20;\n\n    event ObjectSomeValuesFromStored(bytes _cid);\n\n    function storeObjectSomeValuesFrom(bytes[] _annotations, bytes[] _superClassExpression) public returns (bytes) {\n        ObjectSomeValuesFromCodec.ObjectSomeValuesFrom memory _instance = ObjectSomeValuesFromCodec.ObjectSomeValuesFrom(_annotations, _superClassExpression);\n        bytes32 hash = hashObjectSomeValuesFrom(_instance);\n\n        objectsomevaluesfrom_hash_map[hash] = _instance;\n\n        bytes memory _cid = cid.wrapInCid(cidPrefixObjectSomeValuesFrom, hash);\n        emit ObjectSomeValuesFromStored(_cid);\n        return _cid;\n    }\n\n    function retrieveObjectSomeValuesFrom(bytes _cid) external view returns (bytes[] _annotations, bytes[] _superClassExpression) {\n        bytes32 _hash = cid.unwrapCid(_cid);\n        ObjectSomeValuesFromCodec.ObjectSomeValuesFrom memory _instance = objectsomevaluesfrom_hash_map[_hash];\n        return (_instance.annotations, _instance.superClassExpression);\n    }\n\n    function hashObjectSomeValuesFrom(ObjectSomeValuesFromCodec.ObjectSomeValuesFrom memory _instance) public view returns (bytes32) {\n        bytes memory enc = ObjectSomeValuesFromCodec.encode(_instance);\n        bytes32 hash = keccak256(enc);\n\n        return hash;\n    }\n\n    function calculateCidObjectSomeValuesFrom(bytes[] _annotations, bytes[] _superClassExpression) public view returns (bytes _cid) {\n        ObjectSomeValuesFromCodec.ObjectSomeValuesFrom memory _instance = ObjectSomeValuesFromCodec.ObjectSomeValuesFrom(_annotations, _superClassExpression);\n        bytes32 _hash = hashObjectSomeValuesFrom(_instance);\n        return cid.wrapInCid(cidPrefixObjectSomeValuesFrom, _hash);\n    }\n}\n\ncontract ObjectAllValuesFromStorage is IObjectAllValuesFromStorage {\n    mapping (bytes32 => ObjectAllValuesFromCodec.ObjectAllValuesFrom) private objectallvaluesfrom_hash_map;\n\n    bytes6 constant cidPrefixObjectAllValuesFrom = 0x018680031b20;\n\n    event ObjectAllValuesFromStored(bytes _cid);\n\n    function storeObjectAllValuesFrom(bytes[] _annotations, bytes[] _superClassExpression) public returns (bytes) {\n        ObjectAllValuesFromCodec.ObjectAllValuesFrom memory _instance = ObjectAllValuesFromCodec.ObjectAllValuesFrom(_annotations, _superClassExpression);\n        bytes32 hash = hashObjectAllValuesFrom(_instance);\n\n        objectallvaluesfrom_hash_map[hash] = _instance;\n\n        bytes memory _cid = cid.wrapInCid(cidPrefixObjectAllValuesFrom, hash);\n        emit ObjectAllValuesFromStored(_cid);\n        return _cid;\n    }\n\n    function retrieveObjectAllValuesFrom(bytes _cid) external view returns (bytes[] _annotations, bytes[] _superClassExpression) {\n        bytes32 _hash = cid.unwrapCid(_cid);\n        ObjectAllValuesFromCodec.ObjectAllValuesFrom memory _instance = objectallvaluesfrom_hash_map[_hash];\n        return (_instance.annotations, _instance.superClassExpression);\n    }\n\n    function hashObjectAllValuesFrom(ObjectAllValuesFromCodec.ObjectAllValuesFrom memory _instance) public view returns (bytes32) {\n        bytes memory enc = ObjectAllValuesFromCodec.encode(_instance);\n        bytes32 hash = keccak256(enc);\n\n        return hash;\n    }\n\n    function calculateCidObjectAllValuesFrom(bytes[] _annotations, bytes[] _superClassExpression) public view returns (bytes _cid) {\n        ObjectAllValuesFromCodec.ObjectAllValuesFrom memory _instance = ObjectAllValuesFromCodec.ObjectAllValuesFrom(_annotations, _superClassExpression);\n        bytes32 _hash = hashObjectAllValuesFrom(_instance);\n        return cid.wrapInCid(cidPrefixObjectAllValuesFrom, _hash);\n    }\n}\n\ncontract ObjectHasValueStorage is IObjectHasValueStorage {\n    mapping (bytes32 => ObjectHasValueCodec.ObjectHasValue) private objecthasvalue_hash_map;\n\n    bytes6 constant cidPrefixObjectHasValue = 0x018780031b20;\n\n    event ObjectHasValueStored(bytes _cid);\n\n    function storeObjectHasValue(bytes[] _annotations, bytes[] _superClassExpression) public returns (bytes) {\n        ObjectHasValueCodec.ObjectHasValue memory _instance = ObjectHasValueCodec.ObjectHasValue(_annotations, _superClassExpression);\n        bytes32 hash = hashObjectHasValue(_instance);\n\n        objecthasvalue_hash_map[hash] = _instance;\n\n        bytes memory _cid = cid.wrapInCid(cidPrefixObjectHasValue, hash);\n        emit ObjectHasValueStored(_cid);\n        return _cid;\n    }\n\n    function retrieveObjectHasValue(bytes _cid) external view returns (bytes[] _annotations, bytes[] _superClassExpression) {\n        bytes32 _hash = cid.unwrapCid(_cid);\n        ObjectHasValueCodec.ObjectHasValue memory _instance = objecthasvalue_hash_map[_hash];\n        return (_instance.annotations, _instance.superClassExpression);\n    }\n\n    function hashObjectHasValue(ObjectHasValueCodec.ObjectHasValue memory _instance) public view returns (bytes32) {\n        bytes memory enc = ObjectHasValueCodec.encode(_instance);\n        bytes32 hash = keccak256(enc);\n\n        return hash;\n    }\n\n    function calculateCidObjectHasValue(bytes[] _annotations, bytes[] _superClassExpression) public view returns (bytes _cid) {\n        ObjectHasValueCodec.ObjectHasValue memory _instance = ObjectHasValueCodec.ObjectHasValue(_annotations, _superClassExpression);\n        bytes32 _hash = hashObjectHasValue(_instance);\n        return cid.wrapInCid(cidPrefixObjectHasValue, _hash);\n    }\n}\n\ncontract ObjectHasSelfStorage is IObjectHasSelfStorage {\n    mapping (bytes32 => ObjectHasSelfCodec.ObjectHasSelf) private objecthasself_hash_map;\n\n    bytes6 constant cidPrefixObjectHasSelf = 0x018880031b20;\n\n    event ObjectHasSelfStored(bytes _cid);\n\n    function storeObjectHasSelf(bytes[] _annotations, bytes[] _superClassExpression) public returns (bytes) {\n        ObjectHasSelfCodec.ObjectHasSelf memory _instance = ObjectHasSelfCodec.ObjectHasSelf(_annotations, _superClassExpression);\n        bytes32 hash = hashObjectHasSelf(_instance);\n\n        objecthasself_hash_map[hash] = _instance;\n\n        bytes memory _cid = cid.wrapInCid(cidPrefixObjectHasSelf, hash);\n        emit ObjectHasSelfStored(_cid);\n        return _cid;\n    }\n\n    function retrieveObjectHasSelf(bytes _cid) external view returns (bytes[] _annotations, bytes[] _superClassExpression) {\n        bytes32 _hash = cid.unwrapCid(_cid);\n        ObjectHasSelfCodec.ObjectHasSelf memory _instance = objecthasself_hash_map[_hash];\n        return (_instance.annotations, _instance.superClassExpression);\n    }\n\n    function hashObjectHasSelf(ObjectHasSelfCodec.ObjectHasSelf memory _instance) public view returns (bytes32) {\n        bytes memory enc = ObjectHasSelfCodec.encode(_instance);\n        bytes32 hash = keccak256(enc);\n\n        return hash;\n    }\n\n    function calculateCidObjectHasSelf(bytes[] _annotations, bytes[] _superClassExpression) public view returns (bytes _cid) {\n        ObjectHasSelfCodec.ObjectHasSelf memory _instance = ObjectHasSelfCodec.ObjectHasSelf(_annotations, _superClassExpression);\n        bytes32 _hash = hashObjectHasSelf(_instance);\n        return cid.wrapInCid(cidPrefixObjectHasSelf, _hash);\n    }\n}\n\ncontract ObjectMinCardinalityStorage is IObjectMinCardinalityStorage {\n    mapping (bytes32 => ObjectMinCardinalityCodec.ObjectMinCardinality) private objectmincardinality_hash_map;\n\n    bytes6 constant cidPrefixObjectMinCardinality = 0x018980031b20;\n\n    event ObjectMinCardinalityStored(bytes _cid);\n\n    function storeObjectMinCardinality(bytes[] _annotations, bytes[] _superClassExpression) public returns (bytes) {\n        ObjectMinCardinalityCodec.ObjectMinCardinality memory _instance = ObjectMinCardinalityCodec.ObjectMinCardinality(_annotations, _superClassExpression);\n        bytes32 hash = hashObjectMinCardinality(_instance);\n\n        objectmincardinality_hash_map[hash] = _instance;\n\n        bytes memory _cid = cid.wrapInCid(cidPrefixObjectMinCardinality, hash);\n        emit ObjectMinCardinalityStored(_cid);\n        return _cid;\n    }\n\n    function retrieveObjectMinCardinality(bytes _cid) external view returns (bytes[] _annotations, bytes[] _superClassExpression) {\n        bytes32 _hash = cid.unwrapCid(_cid);\n        ObjectMinCardinalityCodec.ObjectMinCardinality memory _instance = objectmincardinality_hash_map[_hash];\n        return (_instance.annotations, _instance.superClassExpression);\n    }\n\n    function hashObjectMinCardinality(ObjectMinCardinalityCodec.ObjectMinCardinality memory _instance) public view returns (bytes32) {\n        bytes memory enc = ObjectMinCardinalityCodec.encode(_instance);\n        bytes32 hash = keccak256(enc);\n\n        return hash;\n    }\n\n    function calculateCidObjectMinCardinality(bytes[] _annotations, bytes[] _superClassExpression) public view returns (bytes _cid) {\n        ObjectMinCardinalityCodec.ObjectMinCardinality memory _instance = ObjectMinCardinalityCodec.ObjectMinCardinality(_annotations, _superClassExpression);\n        bytes32 _hash = hashObjectMinCardinality(_instance);\n        return cid.wrapInCid(cidPrefixObjectMinCardinality, _hash);\n    }\n}\n\ncontract ObjectMaxCardinalityStorage is IObjectMaxCardinalityStorage {\n    mapping (bytes32 => ObjectMaxCardinalityCodec.ObjectMaxCardinality) private objectmaxcardinality_hash_map;\n\n    bytes6 constant cidPrefixObjectMaxCardinality = 0x018a80031b20;\n\n    event ObjectMaxCardinalityStored(bytes _cid);\n\n    function storeObjectMaxCardinality(bytes[] _annotations, bytes[] _superClassExpression) public returns (bytes) {\n        ObjectMaxCardinalityCodec.ObjectMaxCardinality memory _instance = ObjectMaxCardinalityCodec.ObjectMaxCardinality(_annotations, _superClassExpression);\n        bytes32 hash = hashObjectMaxCardinality(_instance);\n\n        objectmaxcardinality_hash_map[hash] = _instance;\n\n        bytes memory _cid = cid.wrapInCid(cidPrefixObjectMaxCardinality, hash);\n        emit ObjectMaxCardinalityStored(_cid);\n        return _cid;\n    }\n\n    function retrieveObjectMaxCardinality(bytes _cid) external view returns (bytes[] _annotations, bytes[] _superClassExpression) {\n        bytes32 _hash = cid.unwrapCid(_cid);\n        ObjectMaxCardinalityCodec.ObjectMaxCardinality memory _instance = objectmaxcardinality_hash_map[_hash];\n        return (_instance.annotations, _instance.superClassExpression);\n    }\n\n    function hashObjectMaxCardinality(ObjectMaxCardinalityCodec.ObjectMaxCardinality memory _instance) public view returns (bytes32) {\n        bytes memory enc = ObjectMaxCardinalityCodec.encode(_instance);\n        bytes32 hash = keccak256(enc);\n\n        return hash;\n    }\n\n    function calculateCidObjectMaxCardinality(bytes[] _annotations, bytes[] _superClassExpression) public view returns (bytes _cid) {\n        ObjectMaxCardinalityCodec.ObjectMaxCardinality memory _instance = ObjectMaxCardinalityCodec.ObjectMaxCardinality(_annotations, _superClassExpression);\n        bytes32 _hash = hashObjectMaxCardinality(_instance);\n        return cid.wrapInCid(cidPrefixObjectMaxCardinality, _hash);\n    }\n}\n\ncontract ObjectExactCardinalityStorage is IObjectExactCardinalityStorage {\n    mapping (bytes32 => ObjectExactCardinalityCodec.ObjectExactCardinality) private objectexactcardinality_hash_map;\n\n    bytes6 constant cidPrefixObjectExactCardinality = 0x018b80031b20;\n\n    event ObjectExactCardinalityStored(bytes _cid);\n\n    function storeObjectExactCardinality(bytes[] _annotations, bytes[] _superClassExpression) public returns (bytes) {\n        ObjectExactCardinalityCodec.ObjectExactCardinality memory _instance = ObjectExactCardinalityCodec.ObjectExactCardinality(_annotations, _superClassExpression);\n        bytes32 hash = hashObjectExactCardinality(_instance);\n\n        objectexactcardinality_hash_map[hash] = _instance;\n\n        bytes memory _cid = cid.wrapInCid(cidPrefixObjectExactCardinality, hash);\n        emit ObjectExactCardinalityStored(_cid);\n        return _cid;\n    }\n\n    function retrieveObjectExactCardinality(bytes _cid) external view returns (bytes[] _annotations, bytes[] _superClassExpression) {\n        bytes32 _hash = cid.unwrapCid(_cid);\n        ObjectExactCardinalityCodec.ObjectExactCardinality memory _instance = objectexactcardinality_hash_map[_hash];\n        return (_instance.annotations, _instance.superClassExpression);\n    }\n\n    function hashObjectExactCardinality(ObjectExactCardinalityCodec.ObjectExactCardinality memory _instance) public view returns (bytes32) {\n        bytes memory enc = ObjectExactCardinalityCodec.encode(_instance);\n        bytes32 hash = keccak256(enc);\n\n        return hash;\n    }\n\n    function calculateCidObjectExactCardinality(bytes[] _annotations, bytes[] _superClassExpression) public view returns (bytes _cid) {\n        ObjectExactCardinalityCodec.ObjectExactCardinality memory _instance = ObjectExactCardinalityCodec.ObjectExactCardinality(_annotations, _superClassExpression);\n        bytes32 _hash = hashObjectExactCardinality(_instance);\n        return cid.wrapInCid(cidPrefixObjectExactCardinality, _hash);\n    }\n}\n\ncontract DataSomeValuesFromStorage is IDataSomeValuesFromStorage {\n    mapping (bytes32 => DataSomeValuesFromCodec.DataSomeValuesFrom) private datasomevaluesfrom_hash_map;\n\n    bytes6 constant cidPrefixDataSomeValuesFrom = 0x018c80031b20;\n\n    event DataSomeValuesFromStored(bytes _cid);\n\n    function storeDataSomeValuesFrom(bytes[] _annotations, bytes[] _superClassExpression) public returns (bytes) {\n        DataSomeValuesFromCodec.DataSomeValuesFrom memory _instance = DataSomeValuesFromCodec.DataSomeValuesFrom(_annotations, _superClassExpression);\n        bytes32 hash = hashDataSomeValuesFrom(_instance);\n\n        datasomevaluesfrom_hash_map[hash] = _instance;\n\n        bytes memory _cid = cid.wrapInCid(cidPrefixDataSomeValuesFrom, hash);\n        emit DataSomeValuesFromStored(_cid);\n        return _cid;\n    }\n\n    function retrieveDataSomeValuesFrom(bytes _cid) external view returns (bytes[] _annotations, bytes[] _superClassExpression) {\n        bytes32 _hash = cid.unwrapCid(_cid);\n        DataSomeValuesFromCodec.DataSomeValuesFrom memory _instance = datasomevaluesfrom_hash_map[_hash];\n        return (_instance.annotations, _instance.superClassExpression);\n    }\n\n    function hashDataSomeValuesFrom(DataSomeValuesFromCodec.DataSomeValuesFrom memory _instance) public view returns (bytes32) {\n        bytes memory enc = DataSomeValuesFromCodec.encode(_instance);\n        bytes32 hash = keccak256(enc);\n\n        return hash;\n    }\n\n    function calculateCidDataSomeValuesFrom(bytes[] _annotations, bytes[] _superClassExpression) public view returns (bytes _cid) {\n        DataSomeValuesFromCodec.DataSomeValuesFrom memory _instance = DataSomeValuesFromCodec.DataSomeValuesFrom(_annotations, _superClassExpression);\n        bytes32 _hash = hashDataSomeValuesFrom(_instance);\n        return cid.wrapInCid(cidPrefixDataSomeValuesFrom, _hash);\n    }\n}\n\ncontract DataAllValuesFromStorage is IDataAllValuesFromStorage {\n    mapping (bytes32 => DataAllValuesFromCodec.DataAllValuesFrom) private dataallvaluesfrom_hash_map;\n\n    bytes6 constant cidPrefixDataAllValuesFrom = 0x018d80031b20;\n\n    event DataAllValuesFromStored(bytes _cid);\n\n    function storeDataAllValuesFrom(bytes[] _annotations, bytes[] _superClassExpression) public returns (bytes) {\n        DataAllValuesFromCodec.DataAllValuesFrom memory _instance = DataAllValuesFromCodec.DataAllValuesFrom(_annotations, _superClassExpression);\n        bytes32 hash = hashDataAllValuesFrom(_instance);\n\n        dataallvaluesfrom_hash_map[hash] = _instance;\n\n        bytes memory _cid = cid.wrapInCid(cidPrefixDataAllValuesFrom, hash);\n        emit DataAllValuesFromStored(_cid);\n        return _cid;\n    }\n\n    function retrieveDataAllValuesFrom(bytes _cid) external view returns (bytes[] _annotations, bytes[] _superClassExpression) {\n        bytes32 _hash = cid.unwrapCid(_cid);\n        DataAllValuesFromCodec.DataAllValuesFrom memory _instance = dataallvaluesfrom_hash_map[_hash];\n        return (_instance.annotations, _instance.superClassExpression);\n    }\n\n    function hashDataAllValuesFrom(DataAllValuesFromCodec.DataAllValuesFrom memory _instance) public view returns (bytes32) {\n        bytes memory enc = DataAllValuesFromCodec.encode(_instance);\n        bytes32 hash = keccak256(enc);\n\n        return hash;\n    }\n\n    function calculateCidDataAllValuesFrom(bytes[] _annotations, bytes[] _superClassExpression) public view returns (bytes _cid) {\n        DataAllValuesFromCodec.DataAllValuesFrom memory _instance = DataAllValuesFromCodec.DataAllValuesFrom(_annotations, _superClassExpression);\n        bytes32 _hash = hashDataAllValuesFrom(_instance);\n        return cid.wrapInCid(cidPrefixDataAllValuesFrom, _hash);\n    }\n}\n\ncontract DataHasValueStorage is IDataHasValueStorage {\n    mapping (bytes32 => DataHasValueCodec.DataHasValue) private datahasvalue_hash_map;\n\n    bytes6 constant cidPrefixDataHasValue = 0x018e80031b20;\n\n    event DataHasValueStored(bytes _cid);\n\n    function storeDataHasValue(bytes[] _annotations, bytes[] _superClassExpression) public returns (bytes) {\n        DataHasValueCodec.DataHasValue memory _instance = DataHasValueCodec.DataHasValue(_annotations, _superClassExpression);\n        bytes32 hash = hashDataHasValue(_instance);\n\n        datahasvalue_hash_map[hash] = _instance;\n\n        bytes memory _cid = cid.wrapInCid(cidPrefixDataHasValue, hash);\n        emit DataHasValueStored(_cid);\n        return _cid;\n    }\n\n    function retrieveDataHasValue(bytes _cid) external view returns (bytes[] _annotations, bytes[] _superClassExpression) {\n        bytes32 _hash = cid.unwrapCid(_cid);\n        DataHasValueCodec.DataHasValue memory _instance = datahasvalue_hash_map[_hash];\n        return (_instance.annotations, _instance.superClassExpression);\n    }\n\n    function hashDataHasValue(DataHasValueCodec.DataHasValue memory _instance) public view returns (bytes32) {\n        bytes memory enc = DataHasValueCodec.encode(_instance);\n        bytes32 hash = keccak256(enc);\n\n        return hash;\n    }\n\n    function calculateCidDataHasValue(bytes[] _annotations, bytes[] _superClassExpression) public view returns (bytes _cid) {\n        DataHasValueCodec.DataHasValue memory _instance = DataHasValueCodec.DataHasValue(_annotations, _superClassExpression);\n        bytes32 _hash = hashDataHasValue(_instance);\n        return cid.wrapInCid(cidPrefixDataHasValue, _hash);\n    }\n}\n\ncontract DataMinCardinalityStorage is IDataMinCardinalityStorage {\n    mapping (bytes32 => DataMinCardinalityCodec.DataMinCardinality) private datamincardinality_hash_map;\n\n    bytes6 constant cidPrefixDataMinCardinality = 0x018f80031b20;\n\n    event DataMinCardinalityStored(bytes _cid);\n\n    function storeDataMinCardinality(bytes[] _annotations, bytes[] _superClassExpression) public returns (bytes) {\n        DataMinCardinalityCodec.DataMinCardinality memory _instance = DataMinCardinalityCodec.DataMinCardinality(_annotations, _superClassExpression);\n        bytes32 hash = hashDataMinCardinality(_instance);\n\n        datamincardinality_hash_map[hash] = _instance;\n\n        bytes memory _cid = cid.wrapInCid(cidPrefixDataMinCardinality, hash);\n        emit DataMinCardinalityStored(_cid);\n        return _cid;\n    }\n\n    function retrieveDataMinCardinality(bytes _cid) external view returns (bytes[] _annotations, bytes[] _superClassExpression) {\n        bytes32 _hash = cid.unwrapCid(_cid);\n        DataMinCardinalityCodec.DataMinCardinality memory _instance = datamincardinality_hash_map[_hash];\n        return (_instance.annotations, _instance.superClassExpression);\n    }\n\n    function hashDataMinCardinality(DataMinCardinalityCodec.DataMinCardinality memory _instance) public view returns (bytes32) {\n        bytes memory enc = DataMinCardinalityCodec.encode(_instance);\n        bytes32 hash = keccak256(enc);\n\n        return hash;\n    }\n\n    function calculateCidDataMinCardinality(bytes[] _annotations, bytes[] _superClassExpression) public view returns (bytes _cid) {\n        DataMinCardinalityCodec.DataMinCardinality memory _instance = DataMinCardinalityCodec.DataMinCardinality(_annotations, _superClassExpression);\n        bytes32 _hash = hashDataMinCardinality(_instance);\n        return cid.wrapInCid(cidPrefixDataMinCardinality, _hash);\n    }\n}\n\ncontract DataMaxCardinalityStorage is IDataMaxCardinalityStorage {\n    mapping (bytes32 => DataMaxCardinalityCodec.DataMaxCardinality) private datamaxcardinality_hash_map;\n\n    bytes6 constant cidPrefixDataMaxCardinality = 0x019080031b20;\n\n    event DataMaxCardinalityStored(bytes _cid);\n\n    function storeDataMaxCardinality(bytes[] _annotations, bytes[] _superClassExpression) public returns (bytes) {\n        DataMaxCardinalityCodec.DataMaxCardinality memory _instance = DataMaxCardinalityCodec.DataMaxCardinality(_annotations, _superClassExpression);\n        bytes32 hash = hashDataMaxCardinality(_instance);\n\n        datamaxcardinality_hash_map[hash] = _instance;\n\n        bytes memory _cid = cid.wrapInCid(cidPrefixDataMaxCardinality, hash);\n        emit DataMaxCardinalityStored(_cid);\n        return _cid;\n    }\n\n    function retrieveDataMaxCardinality(bytes _cid) external view returns (bytes[] _annotations, bytes[] _superClassExpression) {\n        bytes32 _hash = cid.unwrapCid(_cid);\n        DataMaxCardinalityCodec.DataMaxCardinality memory _instance = datamaxcardinality_hash_map[_hash];\n        return (_instance.annotations, _instance.superClassExpression);\n    }\n\n    function hashDataMaxCardinality(DataMaxCardinalityCodec.DataMaxCardinality memory _instance) public view returns (bytes32) {\n        bytes memory enc = DataMaxCardinalityCodec.encode(_instance);\n        bytes32 hash = keccak256(enc);\n\n        return hash;\n    }\n\n    function calculateCidDataMaxCardinality(bytes[] _annotations, bytes[] _superClassExpression) public view returns (bytes _cid) {\n        DataMaxCardinalityCodec.DataMaxCardinality memory _instance = DataMaxCardinalityCodec.DataMaxCardinality(_annotations, _superClassExpression);\n        bytes32 _hash = hashDataMaxCardinality(_instance);\n        return cid.wrapInCid(cidPrefixDataMaxCardinality, _hash);\n    }\n}\n\ncontract DataExactCardinalityStorage is IDataExactCardinalityStorage {\n    mapping (bytes32 => DataExactCardinalityCodec.DataExactCardinality) private dataexactcardinality_hash_map;\n\n    bytes6 constant cidPrefixDataExactCardinality = 0x019180031b20;\n\n    event DataExactCardinalityStored(bytes _cid);\n\n    function storeDataExactCardinality(bytes[] _annotations, bytes[] _superClassExpression) public returns (bytes) {\n        DataExactCardinalityCodec.DataExactCardinality memory _instance = DataExactCardinalityCodec.DataExactCardinality(_annotations, _superClassExpression);\n        bytes32 hash = hashDataExactCardinality(_instance);\n\n        dataexactcardinality_hash_map[hash] = _instance;\n\n        bytes memory _cid = cid.wrapInCid(cidPrefixDataExactCardinality, hash);\n        emit DataExactCardinalityStored(_cid);\n        return _cid;\n    }\n\n    function retrieveDataExactCardinality(bytes _cid) external view returns (bytes[] _annotations, bytes[] _superClassExpression) {\n        bytes32 _hash = cid.unwrapCid(_cid);\n        DataExactCardinalityCodec.DataExactCardinality memory _instance = dataexactcardinality_hash_map[_hash];\n        return (_instance.annotations, _instance.superClassExpression);\n    }\n\n    function hashDataExactCardinality(DataExactCardinalityCodec.DataExactCardinality memory _instance) public view returns (bytes32) {\n        bytes memory enc = DataExactCardinalityCodec.encode(_instance);\n        bytes32 hash = keccak256(enc);\n\n        return hash;\n    }\n\n    function calculateCidDataExactCardinality(bytes[] _annotations, bytes[] _superClassExpression) public view returns (bytes _cid) {\n        DataExactCardinalityCodec.DataExactCardinality memory _instance = DataExactCardinalityCodec.DataExactCardinality(_annotations, _superClassExpression);\n        bytes32 _hash = hashDataExactCardinality(_instance);\n        return cid.wrapInCid(cidPrefixDataExactCardinality, _hash);\n    }\n}\n\ncontract ObjectPropertyStorage is IObjectPropertyStorage {\n    mapping (bytes32 => ObjectPropertyCodec.ObjectProperty) private objectproperty_hash_map;\n\n    bytes6 constant cidPrefixObjectProperty = 0x019280031b20;\n\n    event ObjectPropertyStored(bytes _cid);\n\n    function storeObjectProperty(bytes[] _annotations, bytes[] _superObjectPropertyExpression) public returns (bytes) {\n        ObjectPropertyCodec.ObjectProperty memory _instance = ObjectPropertyCodec.ObjectProperty(_annotations, _superObjectPropertyExpression);\n        bytes32 hash = hashObjectProperty(_instance);\n\n        objectproperty_hash_map[hash] = _instance;\n\n        bytes memory _cid = cid.wrapInCid(cidPrefixObjectProperty, hash);\n        emit ObjectPropertyStored(_cid);\n        return _cid;\n    }\n\n    function retrieveObjectProperty(bytes _cid) external view returns (bytes[] _annotations, bytes[] _superObjectPropertyExpression) {\n        bytes32 _hash = cid.unwrapCid(_cid);\n        ObjectPropertyCodec.ObjectProperty memory _instance = objectproperty_hash_map[_hash];\n        return (_instance.annotations, _instance.superObjectPropertyExpression);\n    }\n\n    function hashObjectProperty(ObjectPropertyCodec.ObjectProperty memory _instance) public view returns (bytes32) {\n        bytes memory enc = ObjectPropertyCodec.encode(_instance);\n        bytes32 hash = keccak256(enc);\n\n        return hash;\n    }\n\n    function calculateCidObjectProperty(bytes[] _annotations, bytes[] _superObjectPropertyExpression) public view returns (bytes _cid) {\n        ObjectPropertyCodec.ObjectProperty memory _instance = ObjectPropertyCodec.ObjectProperty(_annotations, _superObjectPropertyExpression);\n        bytes32 _hash = hashObjectProperty(_instance);\n        return cid.wrapInCid(cidPrefixObjectProperty, _hash);\n    }\n}\n\ncontract InverseObjectPropertyStorage is IInverseObjectPropertyStorage {\n    mapping (bytes32 => InverseObjectPropertyCodec.InverseObjectProperty) private inverseobjectproperty_hash_map;\n\n    bytes6 constant cidPrefixInverseObjectProperty = 0x019380031b20;\n\n    event InverseObjectPropertyStored(bytes _cid);\n\n    function storeInverseObjectProperty(bytes[] _annotations, bytes[] _superObjectPropertyExpression) public returns (bytes) {\n        InverseObjectPropertyCodec.InverseObjectProperty memory _instance = InverseObjectPropertyCodec.InverseObjectProperty(_annotations, _superObjectPropertyExpression);\n        bytes32 hash = hashInverseObjectProperty(_instance);\n\n        inverseobjectproperty_hash_map[hash] = _instance;\n\n        bytes memory _cid = cid.wrapInCid(cidPrefixInverseObjectProperty, hash);\n        emit InverseObjectPropertyStored(_cid);\n        return _cid;\n    }\n\n    function retrieveInverseObjectProperty(bytes _cid) external view returns (bytes[] _annotations, bytes[] _superObjectPropertyExpression) {\n        bytes32 _hash = cid.unwrapCid(_cid);\n        InverseObjectPropertyCodec.InverseObjectProperty memory _instance = inverseobjectproperty_hash_map[_hash];\n        return (_instance.annotations, _instance.superObjectPropertyExpression);\n    }\n\n    function hashInverseObjectProperty(InverseObjectPropertyCodec.InverseObjectProperty memory _instance) public view returns (bytes32) {\n        bytes memory enc = InverseObjectPropertyCodec.encode(_instance);\n        bytes32 hash = keccak256(enc);\n\n        return hash;\n    }\n\n    function calculateCidInverseObjectProperty(bytes[] _annotations, bytes[] _superObjectPropertyExpression) public view returns (bytes _cid) {\n        InverseObjectPropertyCodec.InverseObjectProperty memory _instance = InverseObjectPropertyCodec.InverseObjectProperty(_annotations, _superObjectPropertyExpression);\n        bytes32 _hash = hashInverseObjectProperty(_instance);\n        return cid.wrapInCid(cidPrefixInverseObjectProperty, _hash);\n    }\n}\n\ncontract DataPropertyStorage is IDataPropertyStorage {\n    mapping (bytes32 => DataPropertyCodec.DataProperty) private dataproperty_hash_map;\n\n    bytes6 constant cidPrefixDataProperty = 0x019480031b20;\n\n    event DataPropertyStored(bytes _cid);\n\n    function storeDataProperty(bytes[] _annotations, bytes[] _superDataPropertyExpression) public returns (bytes) {\n        DataPropertyCodec.DataProperty memory _instance = DataPropertyCodec.DataProperty(_annotations, _superDataPropertyExpression);\n        bytes32 hash = hashDataProperty(_instance);\n\n        dataproperty_hash_map[hash] = _instance;\n\n        bytes memory _cid = cid.wrapInCid(cidPrefixDataProperty, hash);\n        emit DataPropertyStored(_cid);\n        return _cid;\n    }\n\n    function retrieveDataProperty(bytes _cid) external view returns (bytes[] _annotations, bytes[] _superDataPropertyExpression) {\n        bytes32 _hash = cid.unwrapCid(_cid);\n        DataPropertyCodec.DataProperty memory _instance = dataproperty_hash_map[_hash];\n        return (_instance.annotations, _instance.superDataPropertyExpression);\n    }\n\n    function hashDataProperty(DataPropertyCodec.DataProperty memory _instance) public view returns (bytes32) {\n        bytes memory enc = DataPropertyCodec.encode(_instance);\n        bytes32 hash = keccak256(enc);\n\n        return hash;\n    }\n\n    function calculateCidDataProperty(bytes[] _annotations, bytes[] _superDataPropertyExpression) public view returns (bytes _cid) {\n        DataPropertyCodec.DataProperty memory _instance = DataPropertyCodec.DataProperty(_annotations, _superDataPropertyExpression);\n        bytes32 _hash = hashDataProperty(_instance);\n        return cid.wrapInCid(cidPrefixDataProperty, _hash);\n    }\n}\n\ncontract AnnotationStorage is IAnnotationStorage {\n    mapping (bytes32 => AnnotationCodec.Annotation) private annotation_hash_map;\n\n    bytes6 constant cidPrefixAnnotation = 0x019580031b20;\n\n    event AnnotationStored(bytes _cid);\n\n    function storeAnnotation(bytes[] _annotations, bytes _property, bytes _value) public returns (bytes) {\n        AnnotationCodec.Annotation memory _instance = AnnotationCodec.Annotation(_annotations, _property, _value);\n        bytes32 hash = hashAnnotation(_instance);\n\n        annotation_hash_map[hash] = _instance;\n\n        bytes memory _cid = cid.wrapInCid(cidPrefixAnnotation, hash);\n        emit AnnotationStored(_cid);\n        return _cid;\n    }\n\n    function retrieveAnnotation(bytes _cid) external view returns (bytes[] _annotations, bytes _property, bytes _value) {\n        bytes32 _hash = cid.unwrapCid(_cid);\n        AnnotationCodec.Annotation memory _instance = annotation_hash_map[_hash];\n        return (_instance.annotations, _instance.property, _instance.value);\n    }\n\n    function hashAnnotation(AnnotationCodec.Annotation memory _instance) public view returns (bytes32) {\n        bytes memory enc = AnnotationCodec.encode(_instance);\n        bytes32 hash = keccak256(enc);\n\n        return hash;\n    }\n\n    function calculateCidAnnotation(bytes[] _annotations, bytes _property, bytes _value) public view returns (bytes _cid) {\n        AnnotationCodec.Annotation memory _instance = AnnotationCodec.Annotation(_annotations, _property, _value);\n        bytes32 _hash = hashAnnotation(_instance);\n        return cid.wrapInCid(cidPrefixAnnotation, _hash);\n    }\n}\n\ncontract IndividualStorage is IIndividualStorage {\n    mapping (bytes32 => IndividualCodec.Individual) private individual_hash_map;\n\n    bytes6 constant cidPrefixIndividual = 0x019680031b20;\n\n    event IndividualStored(bytes _cid);\n\n    function storeIndividual(bytes[] _annotations, bytes[] _class_assertions, bytes[] _negative_class_assertions, bytes[] _object_property_assertions, bytes[] _negative_object_property_assertions, bytes[] _data_property_assertions, bytes[] _negative_data_property_assertions) public returns (bytes) {\n        IndividualCodec.Individual memory _instance = IndividualCodec.Individual(_annotations, _class_assertions, _negative_class_assertions, _object_property_assertions, _negative_object_property_assertions, _data_property_assertions, _negative_data_property_assertions);\n        bytes32 hash = hashIndividual(_instance);\n\n        individual_hash_map[hash] = _instance;\n\n        bytes memory _cid = cid.wrapInCid(cidPrefixIndividual, hash);\n        emit IndividualStored(_cid);\n        return _cid;\n    }\n\n    function retrieveIndividual(bytes _cid) external view returns (bytes[] _annotations, bytes[] _class_assertions, bytes[] _negative_class_assertions, bytes[] _object_property_assertions, bytes[] _negative_object_property_assertions, bytes[] _data_property_assertions, bytes[] _negative_data_property_assertions) {\n        bytes32 _hash = cid.unwrapCid(_cid);\n        IndividualCodec.Individual memory _instance = individual_hash_map[_hash];\n        return (_instance.annotations, _instance.class_assertions, _instance.negative_class_assertions, _instance.object_property_assertions, _instance.negative_object_property_assertions, _instance.data_property_assertions, _instance.negative_data_property_assertions);\n    }\n\n    function hashIndividual(IndividualCodec.Individual memory _instance) public view returns (bytes32) {\n        bytes memory enc = IndividualCodec.encode(_instance);\n        bytes32 hash = keccak256(enc);\n\n        return hash;\n    }\n\n    function calculateCidIndividual(bytes[] _annotations, bytes[] _class_assertions, bytes[] _negative_class_assertions, bytes[] _object_property_assertions, bytes[] _negative_object_property_assertions, bytes[] _data_property_assertions, bytes[] _negative_data_property_assertions) public view returns (bytes _cid) {\n        IndividualCodec.Individual memory _instance = IndividualCodec.Individual(_annotations, _class_assertions, _negative_class_assertions, _object_property_assertions, _negative_object_property_assertions, _data_property_assertions, _negative_data_property_assertions);\n        bytes32 _hash = hashIndividual(_instance);\n        return cid.wrapInCid(cidPrefixIndividual, _hash);\n    }\n}\n\ncontract AnnotationPropertyStorage is IAnnotationPropertyStorage {\n    mapping (bytes32 => AnnotationPropertyCodec.AnnotationProperty) private annotationproperty_hash_map;\n\n    bytes6 constant cidPrefixAnnotationProperty = 0x019780031b20;\n\n    event AnnotationPropertyStored(bytes _cid);\n\n    function storeAnnotationProperty(bytes[] _annotations) public returns (bytes) {\n        AnnotationPropertyCodec.AnnotationProperty memory _instance = AnnotationPropertyCodec.AnnotationProperty(_annotations);\n        bytes32 hash = hashAnnotationProperty(_instance);\n\n        annotationproperty_hash_map[hash] = _instance;\n\n        bytes memory _cid = cid.wrapInCid(cidPrefixAnnotationProperty, hash);\n        emit AnnotationPropertyStored(_cid);\n        return _cid;\n    }\n\n    function retrieveAnnotationProperty(bytes _cid) external view returns (bytes[] _annotations) {\n        bytes32 _hash = cid.unwrapCid(_cid);\n        AnnotationPropertyCodec.AnnotationProperty memory _instance = annotationproperty_hash_map[_hash];\n        return (_instance.annotations);\n    }\n\n    function hashAnnotationProperty(AnnotationPropertyCodec.AnnotationProperty memory _instance) public view returns (bytes32) {\n        bytes memory enc = AnnotationPropertyCodec.encode(_instance);\n        bytes32 hash = keccak256(enc);\n\n        return hash;\n    }\n\n    function calculateCidAnnotationProperty(bytes[] _annotations) public view returns (bytes _cid) {\n        AnnotationPropertyCodec.AnnotationProperty memory _instance = AnnotationPropertyCodec.AnnotationProperty(_annotations);\n        bytes32 _hash = hashAnnotationProperty(_instance);\n        return cid.wrapInCid(cidPrefixAnnotationProperty, _hash);\n    }\n}\n\ncontract ClassAssertionStorage is IClassAssertionStorage {\n    mapping (bytes32 => ClassAssertionCodec.ClassAssertion) private classassertion_hash_map;\n\n    bytes6 constant cidPrefixClassAssertion = 0x019880031b20;\n\n    event ClassAssertionStored(bytes _cid);\n\n    function storeClassAssertion(bytes[] _annotations, bytes _subject, bytes _class) public returns (bytes) {\n        ClassAssertionCodec.ClassAssertion memory _instance = ClassAssertionCodec.ClassAssertion(_annotations, _subject, _class);\n        bytes32 hash = hashClassAssertion(_instance);\n\n        classassertion_hash_map[hash] = _instance;\n\n        bytes memory _cid = cid.wrapInCid(cidPrefixClassAssertion, hash);\n        emit ClassAssertionStored(_cid);\n        return _cid;\n    }\n\n    function retrieveClassAssertion(bytes _cid) external view returns (bytes[] _annotations, bytes _subject, bytes _class) {\n        bytes32 _hash = cid.unwrapCid(_cid);\n        ClassAssertionCodec.ClassAssertion memory _instance = classassertion_hash_map[_hash];\n        return (_instance.annotations, _instance.subject, _instance.class);\n    }\n\n    function hashClassAssertion(ClassAssertionCodec.ClassAssertion memory _instance) public view returns (bytes32) {\n        bytes memory enc = ClassAssertionCodec.encode(_instance);\n        bytes32 hash = keccak256(enc);\n\n        return hash;\n    }\n\n    function calculateCidClassAssertion(bytes[] _annotations, bytes _subject, bytes _class) public view returns (bytes _cid) {\n        ClassAssertionCodec.ClassAssertion memory _instance = ClassAssertionCodec.ClassAssertion(_annotations, _subject, _class);\n        bytes32 _hash = hashClassAssertion(_instance);\n        return cid.wrapInCid(cidPrefixClassAssertion, _hash);\n    }\n}\n\ncontract NegativeClassAssertionStorage is INegativeClassAssertionStorage {\n    mapping (bytes32 => NegativeClassAssertionCodec.NegativeClassAssertion) private negativeclassassertion_hash_map;\n\n    bytes6 constant cidPrefixNegativeClassAssertion = 0x019980031b20;\n\n    event NegativeClassAssertionStored(bytes _cid);\n\n    function storeNegativeClassAssertion(bytes[] _annotations, bytes _subject, bytes _class) public returns (bytes) {\n        NegativeClassAssertionCodec.NegativeClassAssertion memory _instance = NegativeClassAssertionCodec.NegativeClassAssertion(_annotations, _subject, _class);\n        bytes32 hash = hashNegativeClassAssertion(_instance);\n\n        negativeclassassertion_hash_map[hash] = _instance;\n\n        bytes memory _cid = cid.wrapInCid(cidPrefixNegativeClassAssertion, hash);\n        emit NegativeClassAssertionStored(_cid);\n        return _cid;\n    }\n\n    function retrieveNegativeClassAssertion(bytes _cid) external view returns (bytes[] _annotations, bytes _subject, bytes _class) {\n        bytes32 _hash = cid.unwrapCid(_cid);\n        NegativeClassAssertionCodec.NegativeClassAssertion memory _instance = negativeclassassertion_hash_map[_hash];\n        return (_instance.annotations, _instance.subject, _instance.class);\n    }\n\n    function hashNegativeClassAssertion(NegativeClassAssertionCodec.NegativeClassAssertion memory _instance) public view returns (bytes32) {\n        bytes memory enc = NegativeClassAssertionCodec.encode(_instance);\n        bytes32 hash = keccak256(enc);\n\n        return hash;\n    }\n\n    function calculateCidNegativeClassAssertion(bytes[] _annotations, bytes _subject, bytes _class) public view returns (bytes _cid) {\n        NegativeClassAssertionCodec.NegativeClassAssertion memory _instance = NegativeClassAssertionCodec.NegativeClassAssertion(_annotations, _subject, _class);\n        bytes32 _hash = hashNegativeClassAssertion(_instance);\n        return cid.wrapInCid(cidPrefixNegativeClassAssertion, _hash);\n    }\n}\n\ncontract ObjectPropertyAssertionStorage is IObjectPropertyAssertionStorage {\n    mapping (bytes32 => ObjectPropertyAssertionCodec.ObjectPropertyAssertion) private objectpropertyassertion_hash_map;\n\n    bytes6 constant cidPrefixObjectPropertyAssertion = 0x019a80031b20;\n\n    event ObjectPropertyAssertionStored(bytes _cid);\n\n    function storeObjectPropertyAssertion(bytes[] _annotations, bytes _subject, bytes _property, bytes _target) public returns (bytes) {\n        ObjectPropertyAssertionCodec.ObjectPropertyAssertion memory _instance = ObjectPropertyAssertionCodec.ObjectPropertyAssertion(_annotations, _subject, _property, _target);\n        bytes32 hash = hashObjectPropertyAssertion(_instance);\n\n        objectpropertyassertion_hash_map[hash] = _instance;\n\n        bytes memory _cid = cid.wrapInCid(cidPrefixObjectPropertyAssertion, hash);\n        emit ObjectPropertyAssertionStored(_cid);\n        return _cid;\n    }\n\n    function retrieveObjectPropertyAssertion(bytes _cid) external view returns (bytes[] _annotations, bytes _subject, bytes _property, bytes _target) {\n        bytes32 _hash = cid.unwrapCid(_cid);\n        ObjectPropertyAssertionCodec.ObjectPropertyAssertion memory _instance = objectpropertyassertion_hash_map[_hash];\n        return (_instance.annotations, _instance.subject, _instance.property, _instance.target);\n    }\n\n    function hashObjectPropertyAssertion(ObjectPropertyAssertionCodec.ObjectPropertyAssertion memory _instance) public view returns (bytes32) {\n        bytes memory enc = ObjectPropertyAssertionCodec.encode(_instance);\n        bytes32 hash = keccak256(enc);\n\n        return hash;\n    }\n\n    function calculateCidObjectPropertyAssertion(bytes[] _annotations, bytes _subject, bytes _property, bytes _target) public view returns (bytes _cid) {\n        ObjectPropertyAssertionCodec.ObjectPropertyAssertion memory _instance = ObjectPropertyAssertionCodec.ObjectPropertyAssertion(_annotations, _subject, _property, _target);\n        bytes32 _hash = hashObjectPropertyAssertion(_instance);\n        return cid.wrapInCid(cidPrefixObjectPropertyAssertion, _hash);\n    }\n}\n\ncontract NegativeObjectPropertyAssertionStorage is INegativeObjectPropertyAssertionStorage {\n    mapping (bytes32 => NegativeObjectPropertyAssertionCodec.NegativeObjectPropertyAssertion) private negativeobjectpropertyassertion_hash_map;\n\n    bytes6 constant cidPrefixNegativeObjectPropertyAssertion = 0x019b80031b20;\n\n    event NegativeObjectPropertyAssertionStored(bytes _cid);\n\n    function storeNegativeObjectPropertyAssertion(bytes[] _annotations, bytes _subject, bytes _property, bytes _target) public returns (bytes) {\n        NegativeObjectPropertyAssertionCodec.NegativeObjectPropertyAssertion memory _instance = NegativeObjectPropertyAssertionCodec.NegativeObjectPropertyAssertion(_annotations, _subject, _property, _target);\n        bytes32 hash = hashNegativeObjectPropertyAssertion(_instance);\n\n        negativeobjectpropertyassertion_hash_map[hash] = _instance;\n\n        bytes memory _cid = cid.wrapInCid(cidPrefixNegativeObjectPropertyAssertion, hash);\n        emit NegativeObjectPropertyAssertionStored(_cid);\n        return _cid;\n    }\n\n    function retrieveNegativeObjectPropertyAssertion(bytes _cid) external view returns (bytes[] _annotations, bytes _subject, bytes _property, bytes _target) {\n        bytes32 _hash = cid.unwrapCid(_cid);\n        NegativeObjectPropertyAssertionCodec.NegativeObjectPropertyAssertion memory _instance = negativeobjectpropertyassertion_hash_map[_hash];\n        return (_instance.annotations, _instance.subject, _instance.property, _instance.target);\n    }\n\n    function hashNegativeObjectPropertyAssertion(NegativeObjectPropertyAssertionCodec.NegativeObjectPropertyAssertion memory _instance) public view returns (bytes32) {\n        bytes memory enc = NegativeObjectPropertyAssertionCodec.encode(_instance);\n        bytes32 hash = keccak256(enc);\n\n        return hash;\n    }\n\n    function calculateCidNegativeObjectPropertyAssertion(bytes[] _annotations, bytes _subject, bytes _property, bytes _target) public view returns (bytes _cid) {\n        NegativeObjectPropertyAssertionCodec.NegativeObjectPropertyAssertion memory _instance = NegativeObjectPropertyAssertionCodec.NegativeObjectPropertyAssertion(_annotations, _subject, _property, _target);\n        bytes32 _hash = hashNegativeObjectPropertyAssertion(_instance);\n        return cid.wrapInCid(cidPrefixNegativeObjectPropertyAssertion, _hash);\n    }\n}\n\ncontract DataPropertyAssertionStorage is IDataPropertyAssertionStorage {\n    mapping (bytes32 => DataPropertyAssertionCodec.DataPropertyAssertion) private datapropertyassertion_hash_map;\n\n    bytes6 constant cidPrefixDataPropertyAssertion = 0x019c80031b20;\n\n    event DataPropertyAssertionStored(bytes _cid);\n\n    function storeDataPropertyAssertion(bytes[] _annotations, bytes _subject, bytes _property, bytes _target) public returns (bytes) {\n        DataPropertyAssertionCodec.DataPropertyAssertion memory _instance = DataPropertyAssertionCodec.DataPropertyAssertion(_annotations, _subject, _property, _target);\n        bytes32 hash = hashDataPropertyAssertion(_instance);\n\n        datapropertyassertion_hash_map[hash] = _instance;\n\n        bytes memory _cid = cid.wrapInCid(cidPrefixDataPropertyAssertion, hash);\n        emit DataPropertyAssertionStored(_cid);\n        return _cid;\n    }\n\n    function retrieveDataPropertyAssertion(bytes _cid) external view returns (bytes[] _annotations, bytes _subject, bytes _property, bytes _target) {\n        bytes32 _hash = cid.unwrapCid(_cid);\n        DataPropertyAssertionCodec.DataPropertyAssertion memory _instance = datapropertyassertion_hash_map[_hash];\n        return (_instance.annotations, _instance.subject, _instance.property, _instance.target);\n    }\n\n    function hashDataPropertyAssertion(DataPropertyAssertionCodec.DataPropertyAssertion memory _instance) public view returns (bytes32) {\n        bytes memory enc = DataPropertyAssertionCodec.encode(_instance);\n        bytes32 hash = keccak256(enc);\n\n        return hash;\n    }\n\n    function calculateCidDataPropertyAssertion(bytes[] _annotations, bytes _subject, bytes _property, bytes _target) public view returns (bytes _cid) {\n        DataPropertyAssertionCodec.DataPropertyAssertion memory _instance = DataPropertyAssertionCodec.DataPropertyAssertion(_annotations, _subject, _property, _target);\n        bytes32 _hash = hashDataPropertyAssertion(_instance);\n        return cid.wrapInCid(cidPrefixDataPropertyAssertion, _hash);\n    }\n}\n\ncontract NegativeDataPropertyAssertionStorage is INegativeDataPropertyAssertionStorage {\n    mapping (bytes32 => NegativeDataPropertyAssertionCodec.NegativeDataPropertyAssertion) private negativedatapropertyassertion_hash_map;\n\n    bytes6 constant cidPrefixNegativeDataPropertyAssertion = 0x019d80031b20;\n\n    event NegativeDataPropertyAssertionStored(bytes _cid);\n\n    function storeNegativeDataPropertyAssertion(bytes[] _annotations, bytes _subject, bytes _property, bytes _target) public returns (bytes) {\n        NegativeDataPropertyAssertionCodec.NegativeDataPropertyAssertion memory _instance = NegativeDataPropertyAssertionCodec.NegativeDataPropertyAssertion(_annotations, _subject, _property, _target);\n        bytes32 hash = hashNegativeDataPropertyAssertion(_instance);\n\n        negativedatapropertyassertion_hash_map[hash] = _instance;\n\n        bytes memory _cid = cid.wrapInCid(cidPrefixNegativeDataPropertyAssertion, hash);\n        emit NegativeDataPropertyAssertionStored(_cid);\n        return _cid;\n    }\n\n    function retrieveNegativeDataPropertyAssertion(bytes _cid) external view returns (bytes[] _annotations, bytes _subject, bytes _property, bytes _target) {\n        bytes32 _hash = cid.unwrapCid(_cid);\n        NegativeDataPropertyAssertionCodec.NegativeDataPropertyAssertion memory _instance = negativedatapropertyassertion_hash_map[_hash];\n        return (_instance.annotations, _instance.subject, _instance.property, _instance.target);\n    }\n\n    function hashNegativeDataPropertyAssertion(NegativeDataPropertyAssertionCodec.NegativeDataPropertyAssertion memory _instance) public view returns (bytes32) {\n        bytes memory enc = NegativeDataPropertyAssertionCodec.encode(_instance);\n        bytes32 hash = keccak256(enc);\n\n        return hash;\n    }\n\n    function calculateCidNegativeDataPropertyAssertion(bytes[] _annotations, bytes _subject, bytes _property, bytes _target) public view returns (bytes _cid) {\n        NegativeDataPropertyAssertionCodec.NegativeDataPropertyAssertion memory _instance = NegativeDataPropertyAssertionCodec.NegativeDataPropertyAssertion(_annotations, _subject, _property, _target);\n        bytes32 _hash = hashNegativeDataPropertyAssertion(_instance);\n        return cid.wrapInCid(cidPrefixNegativeDataPropertyAssertion, _hash);\n    }\n}\n\ncontract AnnotationAssertionStorage is IAnnotationAssertionStorage {\n    mapping (bytes32 => AnnotationAssertionCodec.AnnotationAssertion) private annotationassertion_hash_map;\n\n    bytes6 constant cidPrefixAnnotationAssertion = 0x019e80031b20;\n\n    event AnnotationAssertionStored(bytes _cid);\n\n    function storeAnnotationAssertion(bytes[] _annotations, bytes _subject, bytes _property, bytes _value) public returns (bytes) {\n        AnnotationAssertionCodec.AnnotationAssertion memory _instance = AnnotationAssertionCodec.AnnotationAssertion(_annotations, _subject, _property, _value);\n        bytes32 hash = hashAnnotationAssertion(_instance);\n\n        annotationassertion_hash_map[hash] = _instance;\n\n        bytes memory _cid = cid.wrapInCid(cidPrefixAnnotationAssertion, hash);\n        emit AnnotationAssertionStored(_cid);\n        return _cid;\n    }\n\n    function retrieveAnnotationAssertion(bytes _cid) external view returns (bytes[] _annotations, bytes _subject, bytes _property, bytes _value) {\n        bytes32 _hash = cid.unwrapCid(_cid);\n        AnnotationAssertionCodec.AnnotationAssertion memory _instance = annotationassertion_hash_map[_hash];\n        return (_instance.annotations, _instance.subject, _instance.property, _instance.value);\n    }\n\n    function hashAnnotationAssertion(AnnotationAssertionCodec.AnnotationAssertion memory _instance) public view returns (bytes32) {\n        bytes memory enc = AnnotationAssertionCodec.encode(_instance);\n        bytes32 hash = keccak256(enc);\n\n        return hash;\n    }\n\n    function calculateCidAnnotationAssertion(bytes[] _annotations, bytes _subject, bytes _property, bytes _value) public view returns (bytes _cid) {\n        AnnotationAssertionCodec.AnnotationAssertion memory _instance = AnnotationAssertionCodec.AnnotationAssertion(_annotations, _subject, _property, _value);\n        bytes32 _hash = hashAnnotationAssertion(_instance);\n        return cid.wrapInCid(cidPrefixAnnotationAssertion, _hash);\n    }\n}\n\ncontract NegativeAnnotationAssertionStorage is INegativeAnnotationAssertionStorage {\n    mapping (bytes32 => NegativeAnnotationAssertionCodec.NegativeAnnotationAssertion) private negativeannotationassertion_hash_map;\n\n    bytes6 constant cidPrefixNegativeAnnotationAssertion = 0x019f80031b20;\n\n    event NegativeAnnotationAssertionStored(bytes _cid);\n\n    function storeNegativeAnnotationAssertion(bytes[] _annotations, bytes _subject, bytes _property, bytes _value) public returns (bytes) {\n        NegativeAnnotationAssertionCodec.NegativeAnnotationAssertion memory _instance = NegativeAnnotationAssertionCodec.NegativeAnnotationAssertion(_annotations, _subject, _property, _value);\n        bytes32 hash = hashNegativeAnnotationAssertion(_instance);\n\n        negativeannotationassertion_hash_map[hash] = _instance;\n\n        bytes memory _cid = cid.wrapInCid(cidPrefixNegativeAnnotationAssertion, hash);\n        emit NegativeAnnotationAssertionStored(_cid);\n        return _cid;\n    }\n\n    function retrieveNegativeAnnotationAssertion(bytes _cid) external view returns (bytes[] _annotations, bytes _subject, bytes _property, bytes _value) {\n        bytes32 _hash = cid.unwrapCid(_cid);\n        NegativeAnnotationAssertionCodec.NegativeAnnotationAssertion memory _instance = negativeannotationassertion_hash_map[_hash];\n        return (_instance.annotations, _instance.subject, _instance.property, _instance.value);\n    }\n\n    function hashNegativeAnnotationAssertion(NegativeAnnotationAssertionCodec.NegativeAnnotationAssertion memory _instance) public view returns (bytes32) {\n        bytes memory enc = NegativeAnnotationAssertionCodec.encode(_instance);\n        bytes32 hash = keccak256(enc);\n\n        return hash;\n    }\n\n    function calculateCidNegativeAnnotationAssertion(bytes[] _annotations, bytes _subject, bytes _property, bytes _value) public view returns (bytes _cid) {\n        NegativeAnnotationAssertionCodec.NegativeAnnotationAssertion memory _instance = NegativeAnnotationAssertionCodec.NegativeAnnotationAssertion(_annotations, _subject, _property, _value);\n        bytes32 _hash = hashNegativeAnnotationAssertion(_instance);\n        return cid.wrapInCid(cidPrefixNegativeAnnotationAssertion, _hash);\n    }\n}\n\ncontract OntologyStorage is IClassStorage, IObjectIntersectionOfStorage, IObjectUnionOfStorage, IObjectComplementOfStorage, IObjectOneOfStorage, IObjectSomeValuesFromStorage, IObjectAllValuesFromStorage, IObjectHasValueStorage, IObjectHasSelfStorage, IObjectMinCardinalityStorage, IObjectMaxCardinalityStorage, IObjectExactCardinalityStorage, IDataSomeValuesFromStorage, IDataAllValuesFromStorage, IDataHasValueStorage, IDataMinCardinalityStorage, IDataMaxCardinalityStorage, IDataExactCardinalityStorage, IObjectPropertyStorage, IInverseObjectPropertyStorage, IDataPropertyStorage, IAnnotationStorage, IIndividualStorage, IAnnotationPropertyStorage, IClassAssertionStorage, INegativeClassAssertionStorage, IObjectPropertyAssertionStorage, INegativeObjectPropertyAssertionStorage, IDataPropertyAssertionStorage, INegativeDataPropertyAssertionStorage, IAnnotationAssertionStorage, INegativeAnnotationAssertionStorage{\n    IClassStorage public class_storage;\n    IObjectIntersectionOfStorage public objectintersectionof_storage;\n    IObjectUnionOfStorage public objectunionof_storage;\n    IObjectComplementOfStorage public objectcomplementof_storage;\n    IObjectOneOfStorage public objectoneof_storage;\n    IObjectSomeValuesFromStorage public objectsomevaluesfrom_storage;\n    IObjectAllValuesFromStorage public objectallvaluesfrom_storage;\n    IObjectHasValueStorage public objecthasvalue_storage;\n    IObjectHasSelfStorage public objecthasself_storage;\n    IObjectMinCardinalityStorage public objectmincardinality_storage;\n    IObjectMaxCardinalityStorage public objectmaxcardinality_storage;\n    IObjectExactCardinalityStorage public objectexactcardinality_storage;\n    IDataSomeValuesFromStorage public datasomevaluesfrom_storage;\n    IDataAllValuesFromStorage public dataallvaluesfrom_storage;\n    IDataHasValueStorage public datahasvalue_storage;\n    IDataMinCardinalityStorage public datamincardinality_storage;\n    IDataMaxCardinalityStorage public datamaxcardinality_storage;\n    IDataExactCardinalityStorage public dataexactcardinality_storage;\n    IObjectPropertyStorage public objectproperty_storage;\n    IInverseObjectPropertyStorage public inverseobjectproperty_storage;\n    IDataPropertyStorage public dataproperty_storage;\n    IAnnotationStorage public annotation_storage;\n    IIndividualStorage public individual_storage;\n    IAnnotationPropertyStorage public annotationproperty_storage;\n    IClassAssertionStorage public classassertion_storage;\n    INegativeClassAssertionStorage public negativeclassassertion_storage;\n    IObjectPropertyAssertionStorage public objectpropertyassertion_storage;\n    INegativeObjectPropertyAssertionStorage public negativeobjectpropertyassertion_storage;\n    IDataPropertyAssertionStorage public datapropertyassertion_storage;\n    INegativeDataPropertyAssertionStorage public negativedatapropertyassertion_storage;\n    IAnnotationAssertionStorage public annotationassertion_storage;\n    INegativeAnnotationAssertionStorage public negativeannotationassertion_storage;\n\n    event ClassStored(bytes _cid);\n    event ObjectIntersectionOfStored(bytes _cid);\n    event ObjectUnionOfStored(bytes _cid);\n    event ObjectComplementOfStored(bytes _cid);\n    event ObjectOneOfStored(bytes _cid);\n    event ObjectSomeValuesFromStored(bytes _cid);\n    event ObjectAllValuesFromStored(bytes _cid);\n    event ObjectHasValueStored(bytes _cid);\n    event ObjectHasSelfStored(bytes _cid);\n    event ObjectMinCardinalityStored(bytes _cid);\n    event ObjectMaxCardinalityStored(bytes _cid);\n    event ObjectExactCardinalityStored(bytes _cid);\n    event DataSomeValuesFromStored(bytes _cid);\n    event DataAllValuesFromStored(bytes _cid);\n    event DataHasValueStored(bytes _cid);\n    event DataMinCardinalityStored(bytes _cid);\n    event DataMaxCardinalityStored(bytes _cid);\n    event DataExactCardinalityStored(bytes _cid);\n    event ObjectPropertyStored(bytes _cid);\n    event InverseObjectPropertyStored(bytes _cid);\n    event DataPropertyStored(bytes _cid);\n    event AnnotationStored(bytes _cid);\n    event IndividualStored(bytes _cid);\n    event AnnotationPropertyStored(bytes _cid);\n    event ClassAssertionStored(bytes _cid);\n    event NegativeClassAssertionStored(bytes _cid);\n    event ObjectPropertyAssertionStored(bytes _cid);\n    event NegativeObjectPropertyAssertionStored(bytes _cid);\n    event DataPropertyAssertionStored(bytes _cid);\n    event NegativeDataPropertyAssertionStored(bytes _cid);\n    event AnnotationAssertionStored(bytes _cid);\n    event NegativeAnnotationAssertionStored(bytes _cid);\n\n    constructor(address[] _storage_delegate_addrs) {\n        class_storage = IClassStorage(_storage_delegate_addrs[0]);\n        objectintersectionof_storage = IObjectIntersectionOfStorage(_storage_delegate_addrs[1]);\n        objectunionof_storage = IObjectUnionOfStorage(_storage_delegate_addrs[2]);\n        objectcomplementof_storage = IObjectComplementOfStorage(_storage_delegate_addrs[3]);\n        objectoneof_storage = IObjectOneOfStorage(_storage_delegate_addrs[4]);\n        objectsomevaluesfrom_storage = IObjectSomeValuesFromStorage(_storage_delegate_addrs[5]);\n        objectallvaluesfrom_storage = IObjectAllValuesFromStorage(_storage_delegate_addrs[6]);\n        objecthasvalue_storage = IObjectHasValueStorage(_storage_delegate_addrs[7]);\n        objecthasself_storage = IObjectHasSelfStorage(_storage_delegate_addrs[8]);\n        objectmincardinality_storage = IObjectMinCardinalityStorage(_storage_delegate_addrs[9]);\n        objectmaxcardinality_storage = IObjectMaxCardinalityStorage(_storage_delegate_addrs[10]);\n        objectexactcardinality_storage = IObjectExactCardinalityStorage(_storage_delegate_addrs[11]);\n        datasomevaluesfrom_storage = IDataSomeValuesFromStorage(_storage_delegate_addrs[12]);\n        dataallvaluesfrom_storage = IDataAllValuesFromStorage(_storage_delegate_addrs[13]);\n        datahasvalue_storage = IDataHasValueStorage(_storage_delegate_addrs[14]);\n        datamincardinality_storage = IDataMinCardinalityStorage(_storage_delegate_addrs[15]);\n        datamaxcardinality_storage = IDataMaxCardinalityStorage(_storage_delegate_addrs[16]);\n        dataexactcardinality_storage = IDataExactCardinalityStorage(_storage_delegate_addrs[17]);\n        objectproperty_storage = IObjectPropertyStorage(_storage_delegate_addrs[18]);\n        inverseobjectproperty_storage = IInverseObjectPropertyStorage(_storage_delegate_addrs[19]);\n        dataproperty_storage = IDataPropertyStorage(_storage_delegate_addrs[20]);\n        annotation_storage = IAnnotationStorage(_storage_delegate_addrs[21]);\n        individual_storage = IIndividualStorage(_storage_delegate_addrs[22]);\n        annotationproperty_storage = IAnnotationPropertyStorage(_storage_delegate_addrs[23]);\n        classassertion_storage = IClassAssertionStorage(_storage_delegate_addrs[24]);\n        negativeclassassertion_storage = INegativeClassAssertionStorage(_storage_delegate_addrs[25]);\n        objectpropertyassertion_storage = IObjectPropertyAssertionStorage(_storage_delegate_addrs[26]);\n        negativeobjectpropertyassertion_storage = INegativeObjectPropertyAssertionStorage(_storage_delegate_addrs[27]);\n        datapropertyassertion_storage = IDataPropertyAssertionStorage(_storage_delegate_addrs[28]);\n        negativedatapropertyassertion_storage = INegativeDataPropertyAssertionStorage(_storage_delegate_addrs[29]);\n        annotationassertion_storage = IAnnotationAssertionStorage(_storage_delegate_addrs[30]);\n        negativeannotationassertion_storage = INegativeAnnotationAssertionStorage(_storage_delegate_addrs[31]);\n    }\n\n    function storeClass(bytes[] _annotations, bytes[] _superClassExpression) public returns (bytes) {\n        bytes memory _cid = class_storage.storeClass(_annotations, _superClassExpression);\n        emit ClassStored(_cid);\n        return _cid;\n    }\n\n    function retrieveClass(bytes _cid) external view returns (bytes[] _annotations, bytes[] _superClassExpression) {\n        return class_storage.retrieveClass(_cid);\n    }\n\n    function storeObjectIntersectionOf(bytes[] _annotations, bytes[] _superClassExpression) public returns (bytes) {\n        bytes memory _cid = objectintersectionof_storage.storeObjectIntersectionOf(_annotations, _superClassExpression);\n        emit ObjectIntersectionOfStored(_cid);\n        return _cid;\n    }\n\n    function retrieveObjectIntersectionOf(bytes _cid) external view returns (bytes[] _annotations, bytes[] _superClassExpression) {\n        return objectintersectionof_storage.retrieveObjectIntersectionOf(_cid);\n    }\n\n    function storeObjectUnionOf(bytes[] _annotations, bytes[] _superClassExpression) public returns (bytes) {\n        bytes memory _cid = objectunionof_storage.storeObjectUnionOf(_annotations, _superClassExpression);\n        emit ObjectUnionOfStored(_cid);\n        return _cid;\n    }\n\n    function retrieveObjectUnionOf(bytes _cid) external view returns (bytes[] _annotations, bytes[] _superClassExpression) {\n        return objectunionof_storage.retrieveObjectUnionOf(_cid);\n    }\n\n    function storeObjectComplementOf(bytes _complementOf, bytes[] _annotations, bytes[] _superClassExpression) public returns (bytes) {\n        bytes memory _cid = objectcomplementof_storage.storeObjectComplementOf(_complementOf, _annotations, _superClassExpression);\n        emit ObjectComplementOfStored(_cid);\n        return _cid;\n    }\n\n    function retrieveObjectComplementOf(bytes _cid) external view returns (bytes _complementOf, bytes[] _annotations, bytes[] _superClassExpression) {\n        return objectcomplementof_storage.retrieveObjectComplementOf(_cid);\n    }\n\n    function storeObjectOneOf(bytes[] _annotations, bytes[] _superClassExpression) public returns (bytes) {\n        bytes memory _cid = objectoneof_storage.storeObjectOneOf(_annotations, _superClassExpression);\n        emit ObjectOneOfStored(_cid);\n        return _cid;\n    }\n\n    function retrieveObjectOneOf(bytes _cid) external view returns (bytes[] _annotations, bytes[] _superClassExpression) {\n        return objectoneof_storage.retrieveObjectOneOf(_cid);\n    }\n\n    function storeObjectSomeValuesFrom(bytes[] _annotations, bytes[] _superClassExpression) public returns (bytes) {\n        bytes memory _cid = objectsomevaluesfrom_storage.storeObjectSomeValuesFrom(_annotations, _superClassExpression);\n        emit ObjectSomeValuesFromStored(_cid);\n        return _cid;\n    }\n\n    function retrieveObjectSomeValuesFrom(bytes _cid) external view returns (bytes[] _annotations, bytes[] _superClassExpression) {\n        return objectsomevaluesfrom_storage.retrieveObjectSomeValuesFrom(_cid);\n    }\n\n    function storeObjectAllValuesFrom(bytes[] _annotations, bytes[] _superClassExpression) public returns (bytes) {\n        bytes memory _cid = objectallvaluesfrom_storage.storeObjectAllValuesFrom(_annotations, _superClassExpression);\n        emit ObjectAllValuesFromStored(_cid);\n        return _cid;\n    }\n\n    function retrieveObjectAllValuesFrom(bytes _cid) external view returns (bytes[] _annotations, bytes[] _superClassExpression) {\n        return objectallvaluesfrom_storage.retrieveObjectAllValuesFrom(_cid);\n    }\n\n    function storeObjectHasValue(bytes[] _annotations, bytes[] _superClassExpression) public returns (bytes) {\n        bytes memory _cid = objecthasvalue_storage.storeObjectHasValue(_annotations, _superClassExpression);\n        emit ObjectHasValueStored(_cid);\n        return _cid;\n    }\n\n    function retrieveObjectHasValue(bytes _cid) external view returns (bytes[] _annotations, bytes[] _superClassExpression) {\n        return objecthasvalue_storage.retrieveObjectHasValue(_cid);\n    }\n\n    function storeObjectHasSelf(bytes[] _annotations, bytes[] _superClassExpression) public returns (bytes) {\n        bytes memory _cid = objecthasself_storage.storeObjectHasSelf(_annotations, _superClassExpression);\n        emit ObjectHasSelfStored(_cid);\n        return _cid;\n    }\n\n    function retrieveObjectHasSelf(bytes _cid) external view returns (bytes[] _annotations, bytes[] _superClassExpression) {\n        return objecthasself_storage.retrieveObjectHasSelf(_cid);\n    }\n\n    function storeObjectMinCardinality(bytes[] _annotations, bytes[] _superClassExpression) public returns (bytes) {\n        bytes memory _cid = objectmincardinality_storage.storeObjectMinCardinality(_annotations, _superClassExpression);\n        emit ObjectMinCardinalityStored(_cid);\n        return _cid;\n    }\n\n    function retrieveObjectMinCardinality(bytes _cid) external view returns (bytes[] _annotations, bytes[] _superClassExpression) {\n        return objectmincardinality_storage.retrieveObjectMinCardinality(_cid);\n    }\n\n    function storeObjectMaxCardinality(bytes[] _annotations, bytes[] _superClassExpression) public returns (bytes) {\n        bytes memory _cid = objectmaxcardinality_storage.storeObjectMaxCardinality(_annotations, _superClassExpression);\n        emit ObjectMaxCardinalityStored(_cid);\n        return _cid;\n    }\n\n    function retrieveObjectMaxCardinality(bytes _cid) external view returns (bytes[] _annotations, bytes[] _superClassExpression) {\n        return objectmaxcardinality_storage.retrieveObjectMaxCardinality(_cid);\n    }\n\n    function storeObjectExactCardinality(bytes[] _annotations, bytes[] _superClassExpression) public returns (bytes) {\n        bytes memory _cid = objectexactcardinality_storage.storeObjectExactCardinality(_annotations, _superClassExpression);\n        emit ObjectExactCardinalityStored(_cid);\n        return _cid;\n    }\n\n    function retrieveObjectExactCardinality(bytes _cid) external view returns (bytes[] _annotations, bytes[] _superClassExpression) {\n        return objectexactcardinality_storage.retrieveObjectExactCardinality(_cid);\n    }\n\n    function storeDataSomeValuesFrom(bytes[] _annotations, bytes[] _superClassExpression) public returns (bytes) {\n        bytes memory _cid = datasomevaluesfrom_storage.storeDataSomeValuesFrom(_annotations, _superClassExpression);\n        emit DataSomeValuesFromStored(_cid);\n        return _cid;\n    }\n\n    function retrieveDataSomeValuesFrom(bytes _cid) external view returns (bytes[] _annotations, bytes[] _superClassExpression) {\n        return datasomevaluesfrom_storage.retrieveDataSomeValuesFrom(_cid);\n    }\n\n    function storeDataAllValuesFrom(bytes[] _annotations, bytes[] _superClassExpression) public returns (bytes) {\n        bytes memory _cid = dataallvaluesfrom_storage.storeDataAllValuesFrom(_annotations, _superClassExpression);\n        emit DataAllValuesFromStored(_cid);\n        return _cid;\n    }\n\n    function retrieveDataAllValuesFrom(bytes _cid) external view returns (bytes[] _annotations, bytes[] _superClassExpression) {\n        return dataallvaluesfrom_storage.retrieveDataAllValuesFrom(_cid);\n    }\n\n    function storeDataHasValue(bytes[] _annotations, bytes[] _superClassExpression) public returns (bytes) {\n        bytes memory _cid = datahasvalue_storage.storeDataHasValue(_annotations, _superClassExpression);\n        emit DataHasValueStored(_cid);\n        return _cid;\n    }\n\n    function retrieveDataHasValue(bytes _cid) external view returns (bytes[] _annotations, bytes[] _superClassExpression) {\n        return datahasvalue_storage.retrieveDataHasValue(_cid);\n    }\n\n    function storeDataMinCardinality(bytes[] _annotations, bytes[] _superClassExpression) public returns (bytes) {\n        bytes memory _cid = datamincardinality_storage.storeDataMinCardinality(_annotations, _superClassExpression);\n        emit DataMinCardinalityStored(_cid);\n        return _cid;\n    }\n\n    function retrieveDataMinCardinality(bytes _cid) external view returns (bytes[] _annotations, bytes[] _superClassExpression) {\n        return datamincardinality_storage.retrieveDataMinCardinality(_cid);\n    }\n\n    function storeDataMaxCardinality(bytes[] _annotations, bytes[] _superClassExpression) public returns (bytes) {\n        bytes memory _cid = datamaxcardinality_storage.storeDataMaxCardinality(_annotations, _superClassExpression);\n        emit DataMaxCardinalityStored(_cid);\n        return _cid;\n    }\n\n    function retrieveDataMaxCardinality(bytes _cid) external view returns (bytes[] _annotations, bytes[] _superClassExpression) {\n        return datamaxcardinality_storage.retrieveDataMaxCardinality(_cid);\n    }\n\n    function storeDataExactCardinality(bytes[] _annotations, bytes[] _superClassExpression) public returns (bytes) {\n        bytes memory _cid = dataexactcardinality_storage.storeDataExactCardinality(_annotations, _superClassExpression);\n        emit DataExactCardinalityStored(_cid);\n        return _cid;\n    }\n\n    function retrieveDataExactCardinality(bytes _cid) external view returns (bytes[] _annotations, bytes[] _superClassExpression) {\n        return dataexactcardinality_storage.retrieveDataExactCardinality(_cid);\n    }\n\n    function storeObjectProperty(bytes[] _annotations, bytes[] _superObjectPropertyExpression) public returns (bytes) {\n        bytes memory _cid = objectproperty_storage.storeObjectProperty(_annotations, _superObjectPropertyExpression);\n        emit ObjectPropertyStored(_cid);\n        return _cid;\n    }\n\n    function retrieveObjectProperty(bytes _cid) external view returns (bytes[] _annotations, bytes[] _superObjectPropertyExpression) {\n        return objectproperty_storage.retrieveObjectProperty(_cid);\n    }\n\n    function storeInverseObjectProperty(bytes[] _annotations, bytes[] _superObjectPropertyExpression) public returns (bytes) {\n        bytes memory _cid = inverseobjectproperty_storage.storeInverseObjectProperty(_annotations, _superObjectPropertyExpression);\n        emit InverseObjectPropertyStored(_cid);\n        return _cid;\n    }\n\n    function retrieveInverseObjectProperty(bytes _cid) external view returns (bytes[] _annotations, bytes[] _superObjectPropertyExpression) {\n        return inverseobjectproperty_storage.retrieveInverseObjectProperty(_cid);\n    }\n\n    function storeDataProperty(bytes[] _annotations, bytes[] _superDataPropertyExpression) public returns (bytes) {\n        bytes memory _cid = dataproperty_storage.storeDataProperty(_annotations, _superDataPropertyExpression);\n        emit DataPropertyStored(_cid);\n        return _cid;\n    }\n\n    function retrieveDataProperty(bytes _cid) external view returns (bytes[] _annotations, bytes[] _superDataPropertyExpression) {\n        return dataproperty_storage.retrieveDataProperty(_cid);\n    }\n\n    function storeAnnotation(bytes[] _annotations, bytes _property, bytes _value) public returns (bytes) {\n        bytes memory _cid = annotation_storage.storeAnnotation(_annotations, _property, _value);\n        emit AnnotationStored(_cid);\n        return _cid;\n    }\n\n    function retrieveAnnotation(bytes _cid) external view returns (bytes[] _annotations, bytes _property, bytes _value) {\n        return annotation_storage.retrieveAnnotation(_cid);\n    }\n\n    function storeIndividual(bytes[] _annotations, bytes[] _class_assertions, bytes[] _negative_class_assertions, bytes[] _object_property_assertions, bytes[] _negative_object_property_assertions, bytes[] _data_property_assertions, bytes[] _negative_data_property_assertions) public returns (bytes) {\n        bytes memory _cid = individual_storage.storeIndividual(_annotations, _class_assertions, _negative_class_assertions, _object_property_assertions, _negative_object_property_assertions, _data_property_assertions, _negative_data_property_assertions);\n        emit IndividualStored(_cid);\n        return _cid;\n    }\n\n    function retrieveIndividual(bytes _cid) external view returns (bytes[] _annotations, bytes[] _class_assertions, bytes[] _negative_class_assertions, bytes[] _object_property_assertions, bytes[] _negative_object_property_assertions, bytes[] _data_property_assertions, bytes[] _negative_data_property_assertions) {\n        return individual_storage.retrieveIndividual(_cid);\n    }\n\n    function storeAnnotationProperty(bytes[] _annotations) public returns (bytes) {\n        bytes memory _cid = annotationproperty_storage.storeAnnotationProperty(_annotations);\n        emit AnnotationPropertyStored(_cid);\n        return _cid;\n    }\n\n    function retrieveAnnotationProperty(bytes _cid) external view returns (bytes[] _annotations) {\n        return annotationproperty_storage.retrieveAnnotationProperty(_cid);\n    }\n\n    function storeClassAssertion(bytes[] _annotations, bytes _subject, bytes _class) public returns (bytes) {\n        bytes memory _cid = classassertion_storage.storeClassAssertion(_annotations, _subject, _class);\n        emit ClassAssertionStored(_cid);\n        return _cid;\n    }\n\n    function retrieveClassAssertion(bytes _cid) external view returns (bytes[] _annotations, bytes _subject, bytes _class) {\n        return classassertion_storage.retrieveClassAssertion(_cid);\n    }\n\n    function storeNegativeClassAssertion(bytes[] _annotations, bytes _subject, bytes _class) public returns (bytes) {\n        bytes memory _cid = negativeclassassertion_storage.storeNegativeClassAssertion(_annotations, _subject, _class);\n        emit NegativeClassAssertionStored(_cid);\n        return _cid;\n    }\n\n    function retrieveNegativeClassAssertion(bytes _cid) external view returns (bytes[] _annotations, bytes _subject, bytes _class) {\n        return negativeclassassertion_storage.retrieveNegativeClassAssertion(_cid);\n    }\n\n    function storeObjectPropertyAssertion(bytes[] _annotations, bytes _subject, bytes _property, bytes _target) public returns (bytes) {\n        bytes memory _cid = objectpropertyassertion_storage.storeObjectPropertyAssertion(_annotations, _subject, _property, _target);\n        emit ObjectPropertyAssertionStored(_cid);\n        return _cid;\n    }\n\n    function retrieveObjectPropertyAssertion(bytes _cid) external view returns (bytes[] _annotations, bytes _subject, bytes _property, bytes _target) {\n        return objectpropertyassertion_storage.retrieveObjectPropertyAssertion(_cid);\n    }\n\n    function storeNegativeObjectPropertyAssertion(bytes[] _annotations, bytes _subject, bytes _property, bytes _target) public returns (bytes) {\n        bytes memory _cid = negativeobjectpropertyassertion_storage.storeNegativeObjectPropertyAssertion(_annotations, _subject, _property, _target);\n        emit NegativeObjectPropertyAssertionStored(_cid);\n        return _cid;\n    }\n\n    function retrieveNegativeObjectPropertyAssertion(bytes _cid) external view returns (bytes[] _annotations, bytes _subject, bytes _property, bytes _target) {\n        return negativeobjectpropertyassertion_storage.retrieveNegativeObjectPropertyAssertion(_cid);\n    }\n\n    function storeDataPropertyAssertion(bytes[] _annotations, bytes _subject, bytes _property, bytes _target) public returns (bytes) {\n        bytes memory _cid = datapropertyassertion_storage.storeDataPropertyAssertion(_annotations, _subject, _property, _target);\n        emit DataPropertyAssertionStored(_cid);\n        return _cid;\n    }\n\n    function retrieveDataPropertyAssertion(bytes _cid) external view returns (bytes[] _annotations, bytes _subject, bytes _property, bytes _target) {\n        return datapropertyassertion_storage.retrieveDataPropertyAssertion(_cid);\n    }\n\n    function storeNegativeDataPropertyAssertion(bytes[] _annotations, bytes _subject, bytes _property, bytes _target) public returns (bytes) {\n        bytes memory _cid = negativedatapropertyassertion_storage.storeNegativeDataPropertyAssertion(_annotations, _subject, _property, _target);\n        emit NegativeDataPropertyAssertionStored(_cid);\n        return _cid;\n    }\n\n    function retrieveNegativeDataPropertyAssertion(bytes _cid) external view returns (bytes[] _annotations, bytes _subject, bytes _property, bytes _target) {\n        return negativedatapropertyassertion_storage.retrieveNegativeDataPropertyAssertion(_cid);\n    }\n\n    function storeAnnotationAssertion(bytes[] _annotations, bytes _subject, bytes _property, bytes _value) public returns (bytes) {\n        bytes memory _cid = annotationassertion_storage.storeAnnotationAssertion(_annotations, _subject, _property, _value);\n        emit AnnotationAssertionStored(_cid);\n        return _cid;\n    }\n\n    function retrieveAnnotationAssertion(bytes _cid) external view returns (bytes[] _annotations, bytes _subject, bytes _property, bytes _value) {\n        return annotationassertion_storage.retrieveAnnotationAssertion(_cid);\n    }\n\n    function storeNegativeAnnotationAssertion(bytes[] _annotations, bytes _subject, bytes _property, bytes _value) public returns (bytes) {\n        bytes memory _cid = negativeannotationassertion_storage.storeNegativeAnnotationAssertion(_annotations, _subject, _property, _value);\n        emit NegativeAnnotationAssertionStored(_cid);\n        return _cid;\n    }\n\n    function retrieveNegativeAnnotationAssertion(bytes _cid) external view returns (bytes[] _annotations, bytes _subject, bytes _property, bytes _value) {\n        return negativeannotationassertion_storage.retrieveNegativeAnnotationAssertion(_cid);\n    }\n\n}\n\n",
  "sourcePath": "/Users/hobofan/rlay/rlay-protocol/contracts/OntologyStorage.sol",
  "compiler": {
    "name": "solc",
    "version": "0.4.24+commit.e67f0147.Emscripten.clang"
  },
  "schemaVersion": "2.0.0",
  "updatedAt": "2019-03-01T18:16:31.822Z"
}